{
    "_format": "hh-sol-artifact-1",
    "contractName": "ElementalRaidersSkill",
    "sourceName": "contracts/games/ElementalRaiders/Skill/ElementalRaidersSkill.sol",
    "abi": [
        {
            "inputs": [
                {
                    "internalType": "address",
                    "name": "_g4alProxy",
                    "type": "address"
                },
                {
                    "internalType": "string",
                    "name": "_baseUri",
                    "type": "string"
                }
            ],
            "stateMutability": "nonpayable",
            "type": "constructor"
        },
        {
            "anonymous": false,
            "inputs": [
                {
                    "indexed": true,
                    "internalType": "address",
                    "name": "owner",
                    "type": "address"
                },
                {
                    "indexed": true,
                    "internalType": "address",
                    "name": "approved",
                    "type": "address"
                },
                {
                    "indexed": true,
                    "internalType": "uint256",
                    "name": "tokenId",
                    "type": "uint256"
                }
            ],
            "name": "Approval",
            "type": "event"
        },
        {
            "anonymous": false,
            "inputs": [
                {
                    "indexed": true,
                    "internalType": "address",
                    "name": "owner",
                    "type": "address"
                },
                {
                    "indexed": true,
                    "internalType": "address",
                    "name": "operator",
                    "type": "address"
                },
                {
                    "indexed": false,
                    "internalType": "bool",
                    "name": "approved",
                    "type": "bool"
                }
            ],
            "name": "ApprovalForAll",
            "type": "event"
        },
        {
            "anonymous": false,
            "inputs": [
                {
                    "indexed": true,
                    "internalType": "address",
                    "name": "from",
                    "type": "address"
                },
                {
                    "indexed": true,
                    "internalType": "address",
                    "name": "to",
                    "type": "address"
                },
                {
                    "indexed": false,
                    "internalType": "uint256",
                    "name": "tokenId",
                    "type": "uint256"
                },
                {
                    "indexed": false,
                    "internalType": "uint256",
                    "name": "price",
                    "type": "uint256"
                }
            ],
            "name": "Mint",
            "type": "event"
        },
        {
            "anonymous": false,
            "inputs": [
                {
                    "indexed": true,
                    "internalType": "address",
                    "name": "from",
                    "type": "address"
                },
                {
                    "indexed": true,
                    "internalType": "address",
                    "name": "to",
                    "type": "address"
                },
                {
                    "indexed": true,
                    "internalType": "uint256",
                    "name": "tokenId",
                    "type": "uint256"
                }
            ],
            "name": "Transfer",
            "type": "event"
        },
        {
            "inputs": [
                {
                    "internalType": "address",
                    "name": "to",
                    "type": "address"
                },
                {
                    "internalType": "uint256",
                    "name": "tokenId",
                    "type": "uint256"
                }
            ],
            "name": "approve",
            "outputs": [],
            "stateMutability": "nonpayable",
            "type": "function"
        },
        {
            "inputs": [
                {
                    "internalType": "address",
                    "name": "owner",
                    "type": "address"
                }
            ],
            "name": "balanceOf",
            "outputs": [
                {
                    "internalType": "uint256",
                    "name": "",
                    "type": "uint256"
                }
            ],
            "stateMutability": "view",
            "type": "function"
        },
        {
            "inputs": [
                {
                    "internalType": "uint256",
                    "name": "tokenId",
                    "type": "uint256"
                }
            ],
            "name": "burn",
            "outputs": [],
            "stateMutability": "nonpayable",
            "type": "function"
        },
        {
            "inputs": [
                {
                    "internalType": "uint256",
                    "name": "tokenId",
                    "type": "uint256"
                }
            ],
            "name": "getApproved",
            "outputs": [
                {
                    "internalType": "address",
                    "name": "",
                    "type": "address"
                }
            ],
            "stateMutability": "view",
            "type": "function"
        },
        {
            "inputs": [
                {
                    "internalType": "uint256[]",
                    "name": "rarities",
                    "type": "uint256[]"
                }
            ],
            "name": "getMintingPricesByRarity",
            "outputs": [
                {
                    "internalType": "uint256[]",
                    "name": "",
                    "type": "uint256[]"
                }
            ],
            "stateMutability": "view",
            "type": "function"
        },
        {
            "inputs": [
                {
                    "internalType": "uint256[]",
                    "name": "tokens",
                    "type": "uint256[]"
                }
            ],
            "name": "getOwnersByTokens",
            "outputs": [
                {
                    "internalType": "address[]",
                    "name": "",
                    "type": "address[]"
                }
            ],
            "stateMutability": "view",
            "type": "function"
        },
        {
            "inputs": [
                {
                    "internalType": "address",
                    "name": "owner",
                    "type": "address"
                },
                {
                    "internalType": "address",
                    "name": "operator",
                    "type": "address"
                }
            ],
            "name": "isApprovedForAll",
            "outputs": [
                {
                    "internalType": "bool",
                    "name": "",
                    "type": "bool"
                }
            ],
            "stateMutability": "view",
            "type": "function"
        },
        {
            "inputs": [],
            "name": "name",
            "outputs": [
                {
                    "internalType": "string",
                    "name": "",
                    "type": "string"
                }
            ],
            "stateMutability": "view",
            "type": "function"
        },
        {
            "inputs": [
                {
                    "internalType": "uint256",
                    "name": "tokenId",
                    "type": "uint256"
                }
            ],
            "name": "ownerOf",
            "outputs": [
                {
                    "internalType": "address",
                    "name": "",
                    "type": "address"
                }
            ],
            "stateMutability": "view",
            "type": "function"
        },
        {
            "inputs": [
                {
                    "internalType": "uint256",
                    "name": "",
                    "type": "uint256"
                }
            ],
            "name": "prices",
            "outputs": [
                {
                    "internalType": "uint256",
                    "name": "",
                    "type": "uint256"
                }
            ],
            "stateMutability": "view",
            "type": "function"
        },
        {
            "inputs": [
                {
                    "internalType": "address",
                    "name": "to",
                    "type": "address"
                },
                {
                    "internalType": "uint256",
                    "name": "rarity",
                    "type": "uint256"
                }
            ],
            "name": "safeMint",
            "outputs": [],
            "stateMutability": "nonpayable",
            "type": "function"
        },
        {
            "inputs": [
                {
                    "internalType": "address",
                    "name": "from",
                    "type": "address"
                },
                {
                    "internalType": "address",
                    "name": "to",
                    "type": "address"
                },
                {
                    "internalType": "uint256",
                    "name": "tokenId",
                    "type": "uint256"
                }
            ],
            "name": "safeTransferFrom",
            "outputs": [],
            "stateMutability": "nonpayable",
            "type": "function"
        },
        {
            "inputs": [
                {
                    "internalType": "address",
                    "name": "from",
                    "type": "address"
                },
                {
                    "internalType": "address",
                    "name": "to",
                    "type": "address"
                },
                {
                    "internalType": "uint256",
                    "name": "tokenId",
                    "type": "uint256"
                },
                {
                    "internalType": "bytes",
                    "name": "data",
                    "type": "bytes"
                }
            ],
            "name": "safeTransferFrom",
            "outputs": [],
            "stateMutability": "nonpayable",
            "type": "function"
        },
        {
            "inputs": [
                {
                    "internalType": "address",
                    "name": "operator",
                    "type": "address"
                },
                {
                    "internalType": "bool",
                    "name": "approved",
                    "type": "bool"
                }
            ],
            "name": "setApprovalForAll",
            "outputs": [],
            "stateMutability": "nonpayable",
            "type": "function"
        },
        {
            "inputs": [
                {
                    "internalType": "bytes4",
                    "name": "interfaceId",
                    "type": "bytes4"
                }
            ],
            "name": "supportsInterface",
            "outputs": [
                {
                    "internalType": "bool",
                    "name": "",
                    "type": "bool"
                }
            ],
            "stateMutability": "view",
            "type": "function"
        },
        {
            "inputs": [],
            "name": "symbol",
            "outputs": [
                {
                    "internalType": "string",
                    "name": "",
                    "type": "string"
                }
            ],
            "stateMutability": "view",
            "type": "function"
        },
        {
            "inputs": [
                {
                    "internalType": "uint256",
                    "name": "index",
                    "type": "uint256"
                }
            ],
            "name": "tokenByIndex",
            "outputs": [
                {
                    "internalType": "uint256",
                    "name": "",
                    "type": "uint256"
                }
            ],
            "stateMutability": "view",
            "type": "function"
        },
        {
            "inputs": [
                {
                    "internalType": "address",
                    "name": "owner",
                    "type": "address"
                },
                {
                    "internalType": "uint256",
                    "name": "index",
                    "type": "uint256"
                }
            ],
            "name": "tokenOfOwnerByIndex",
            "outputs": [
                {
                    "internalType": "uint256",
                    "name": "",
                    "type": "uint256"
                }
            ],
            "stateMutability": "view",
            "type": "function"
        },
        {
            "inputs": [
                {
                    "internalType": "uint256",
                    "name": "tokenId",
                    "type": "uint256"
                }
            ],
            "name": "tokenURI",
            "outputs": [
                {
                    "internalType": "string",
                    "name": "",
                    "type": "string"
                }
            ],
            "stateMutability": "view",
            "type": "function"
        },
        {
            "inputs": [],
            "name": "totalSupply",
            "outputs": [
                {
                    "internalType": "uint256",
                    "name": "",
                    "type": "uint256"
                }
            ],
            "stateMutability": "view",
            "type": "function"
        },
        {
            "inputs": [
                {
                    "internalType": "address",
                    "name": "from",
                    "type": "address"
                },
                {
                    "internalType": "address",
                    "name": "to",
                    "type": "address"
                },
                {
                    "internalType": "uint256",
                    "name": "tokenId",
                    "type": "uint256"
                }
            ],
            "name": "transferFrom",
            "outputs": [],
            "stateMutability": "nonpayable",
            "type": "function"
        },
        {
            "inputs": [
                {
                    "internalType": "string",
                    "name": "_baseUri",
                    "type": "string"
                }
            ],
            "name": "updateBaseURI",
            "outputs": [],
            "stateMutability": "nonpayable",
            "type": "function"
        },
        {
            "inputs": [
                {
                    "internalType": "uint256",
                    "name": "rarity",
                    "type": "uint256"
                },
                {
                    "internalType": "uint256",
                    "name": "price",
                    "type": "uint256"
                }
            ],
            "name": "updateMintingPrice",
            "outputs": [],
            "stateMutability": "nonpayable",
            "type": "function"
        }
    ],
    "bytecode": "0x60a06040523480156200001157600080fd5b5060405162003aba38038062003aba833981016040819052620000349162000142565b6040518060400160405280601781526020017f456c656d656e74616c205261696465727320536b696c6c00000000000000000081525060405180604001604052806007815260200166115494d2d2531360ca1b81525081600090816200009b9190620002c7565b506001620000aa8282620002c7565b5050506001600160a01b038216620001085760405162461bcd60e51b815260206004820152601360248201527f416464726573732063616e6e6f74206265203000000000000000000000000000604482015260640160405180910390fd5b6001600160a01b038216608052600b620001238282620002c7565b50505062000393565b634e487b7160e01b600052604160045260246000fd5b600080604083850312156200015657600080fd5b82516001600160a01b03811681146200016e57600080fd5b602084810151919350906001600160401b03808211156200018e57600080fd5b818601915086601f830112620001a357600080fd5b815181811115620001b857620001b86200012c565b604051601f8201601f19908116603f01168101908382118183101715620001e357620001e36200012c565b816040528281528986848701011115620001fc57600080fd5b600093505b8284101562000220578484018601518185018701529285019262000201565b60008684830101528096505050505050509250929050565b600181811c908216806200024d57607f821691505b6020821081036200026e57634e487b7160e01b600052602260045260246000fd5b50919050565b601f821115620002c257600081815260208120601f850160051c810160208610156200029d5750805b601f850160051c820191505b81811015620002be57828155600101620002a9565b5050505b505050565b81516001600160401b03811115620002e357620002e36200012c565b620002fb81620002f4845462000238565b8462000274565b602080601f8311600181146200033357600084156200031a5750858301515b600019600386901b1c1916600185901b178555620002be565b600085815260208120601f198616915b82811015620003645788860151825594840194600190910190840162000343565b5085821015620003835787850151600019600388901b60f8161c191681555b5050505050600190811b01905550565b6080516136da620003e060003960008181610bb601528181610cf501528181610ee001528181610fba015281816110f601528181611186015281816113c0015261158201526136da6000f3fe608060405234801561001057600080fd5b506004361061018d5760003560e01c80636352211e116100e3578063b88d4fde1161008c578063c87b56dd11610066578063c87b56dd14610367578063e646a1491461037a578063e985e9c51461038d57600080fd5b8063b88d4fde14610314578063bc31c1c114610327578063bf80cb6a1461034757600080fd5b806395d89b41116100bd57806395d89b41146102e6578063a1448194146102ee578063a22cb4651461030157600080fd5b80636352211e146102ad57806370a08231146102c0578063931688cb146102d357600080fd5b806323b872dd1161014557806342966c681161011f57806342966c68146102675780634f6ccce71461027a57806359c084b31461028d57600080fd5b806323b872dd1461022e5780632f745c591461024157806342842e0e1461025457600080fd5b8063081812fc11610176578063081812fc146101cf578063095ea7b31461020757806318160ddd1461021c57600080fd5b806301ffc9a71461019257806306fdde03146101ba575b600080fd5b6101a56101a0366004612e2e565b6103d6565b60405190151581526020015b60405180910390f35b6101c26103e7565b6040516101b19190612eb9565b6101e26101dd366004612ecc565b610479565b60405173ffffffffffffffffffffffffffffffffffffffff90911681526020016101b1565b61021a610215366004612f07565b6104ad565b005b6008545b6040519081526020016101b1565b61021a61023c366004612f33565b61063e565b61022061024f366004612f07565b6106e0565b61021a610262366004612f33565b6107af565b61021a610275366004612ecc565b6107ca565b610220610288366004612ecc565b61086b565b6102a061029b366004612ff2565b610929565b6040516101b19190613098565b6101e26102bb366004612ecc565b610a5a565b6102206102ce3660046130f2565b610ae6565b61021a6102e136600461310f565b610bb4565b6101c2610ce4565b61021a6102fc366004612f07565b610cf3565b61021a61030f36600461318f565b6112b1565b61021a6103223660046131c8565b6112c0565b610220610335366004612ecc565b600c6020526000908152604090205481565b61035a610355366004612ff2565b611368565b6040516101b191906132aa565b6101c2610375366004612ecc565b611519565b61021a6103883660046132e2565b611580565b6101a561039b366004613304565b73ffffffffffffffffffffffffffffffffffffffff918216600090815260056020908152604080832093909416825291909152205460ff1690565b60006103e1826116b5565b92915050565b6060600080546103f690613332565b80601f016020809104026020016040519081016040528092919081815260200182805461042290613332565b801561046f5780601f106104445761010080835404028352916020019161046f565b820191906000526020600020905b81548152906001019060200180831161045257829003601f168201915b5050505050905090565b60006104848261170b565b5060009081526004602052604090205473ffffffffffffffffffffffffffffffffffffffff1690565b60006104b882610a5a565b90508073ffffffffffffffffffffffffffffffffffffffff168373ffffffffffffffffffffffffffffffffffffffff160361057a576040517f08c379a000000000000000000000000000000000000000000000000000000000815260206004820152602160248201527f4552433732313a20617070726f76616c20746f2063757272656e74206f776e6560448201527f720000000000000000000000000000000000000000000000000000000000000060648201526084015b60405180910390fd5b3373ffffffffffffffffffffffffffffffffffffffff821614806105a357506105a3813361039b565b61062f576040517f08c379a000000000000000000000000000000000000000000000000000000000815260206004820152603d60248201527f4552433732313a20617070726f76652063616c6c6572206973206e6f7420746f60448201527f6b656e206f776e6572206f7220617070726f76656420666f7220616c6c0000006064820152608401610571565b6106398383611796565b505050565b610649335b82611836565b6106d5576040517f08c379a000000000000000000000000000000000000000000000000000000000815260206004820152602d60248201527f4552433732313a2063616c6c6572206973206e6f7420746f6b656e206f776e6560448201527f72206f7220617070726f766564000000000000000000000000000000000000006064820152608401610571565b6106398383836118f6565b60006106eb83610ae6565b8210610779576040517f08c379a000000000000000000000000000000000000000000000000000000000815260206004820152602b60248201527f455243373231456e756d657261626c653a206f776e657220696e646578206f7560448201527f74206f6620626f756e64730000000000000000000000000000000000000000006064820152608401610571565b5073ffffffffffffffffffffffffffffffffffffffff919091166000908152600660209081526040808320938352929052205490565b610639838383604051806020016040528060008152506112c0565b6107d333610643565b61085f576040517f08c379a000000000000000000000000000000000000000000000000000000000815260206004820152602d60248201527f4552433732313a2063616c6c6572206973206e6f7420746f6b656e206f776e6560448201527f72206f7220617070726f766564000000000000000000000000000000000000006064820152608401610571565b61086881611bfe565b50565b600061087660085490565b8210610904576040517f08c379a000000000000000000000000000000000000000000000000000000000815260206004820152602c60248201527f455243373231456e756d657261626c653a20676c6f62616c20696e646578206f60448201527f7574206f6620626f756e647300000000000000000000000000000000000000006064820152608401610571565b6008828154811061091757610917613385565b90600052602060002001549050919050565b60606000825167ffffffffffffffff81111561094757610947612f74565b604051908082528060200260200182016040528015610970578160200160208202803683370190505b50905060005b8351811015610a53573073ffffffffffffffffffffffffffffffffffffffff16636352211e8583815181106109ad576109ad613385565b60200260200101516040518263ffffffff1660e01b81526004016109d391815260200190565b602060405180830381865afa1580156109f0573d6000803e3d6000fd5b505050506040513d601f19601f82011682018060405250810190610a1491906133b4565b828281518110610a2657610a26613385565b73ffffffffffffffffffffffffffffffffffffffff90921660209283029190910190910152600101610976565b5092915050565b60008181526002602052604081205473ffffffffffffffffffffffffffffffffffffffff16806103e1576040517f08c379a000000000000000000000000000000000000000000000000000000000815260206004820152601860248201527f4552433732313a20696e76616c696420746f6b656e20494400000000000000006044820152606401610571565b600073ffffffffffffffffffffffffffffffffffffffff8216610b8b576040517f08c379a000000000000000000000000000000000000000000000000000000000815260206004820152602960248201527f4552433732313a2061646472657373207a65726f206973206e6f74206120766160448201527f6c6964206f776e657200000000000000000000000000000000000000000000006064820152608401610571565b5073ffffffffffffffffffffffffffffffffffffffff1660009081526003602052604090205490565b7f000000000000000000000000000000000000000000000000000000000000000073ffffffffffffffffffffffffffffffffffffffff16636e9960c36040518163ffffffff1660e01b8152600401602060405180830381865afa158015610c1f573d6000803e3d6000fd5b505050506040513d601f19601f82011682018060405250810190610c4391906133b4565b73ffffffffffffffffffffffffffffffffffffffff163373ffffffffffffffffffffffffffffffffffffffff1614610cd7576040517f08c379a000000000000000000000000000000000000000000000000000000000815260206004820152600960248201527f4e6f742041646d696e00000000000000000000000000000000000000000000006044820152606401610571565b600b61063982848361341f565b6060600180546103f690613332565b7f000000000000000000000000000000000000000000000000000000000000000073ffffffffffffffffffffffffffffffffffffffff16636e9960c36040518163ffffffff1660e01b8152600401602060405180830381865afa158015610d5e573d6000803e3d6000fd5b505050506040513d601f19601f82011682018060405250810190610d8291906133b4565b73ffffffffffffffffffffffffffffffffffffffff163373ffffffffffffffffffffffffffffffffffffffff1614610e16576040517f08c379a000000000000000000000000000000000000000000000000000000000815260206004820152600960248201527f4e6f742041646d696e00000000000000000000000000000000000000000000006044820152606401610571565b6000818152600c6020526040902054151580610e50575080158015610e50575073ffffffffffffffffffffffffffffffffffffffff821633145b610edc576040517f08c379a000000000000000000000000000000000000000000000000000000000815260206004820152602560248201527f4d696e74696e67203020707269636520746f6b656e73206973206e6f7420616c60448201527f6c6f7765640000000000000000000000000000000000000000000000000000006064820152608401610571565b60007f000000000000000000000000000000000000000000000000000000000000000073ffffffffffffffffffffffffffffffffffffffff166364d00c456040518163ffffffff1660e01b8152600401602060405180830381865afa158015610f49573d6000803e3d6000fd5b505050506040513d601f19601f82011682018060405250810190610f6d91906133b4565b73ffffffffffffffffffffffffffffffffffffffff80851660009081526005602090815260408083209385168352929052205490915060ff16610fb657610fb683826001611ce4565b60007f000000000000000000000000000000000000000000000000000000000000000073ffffffffffffffffffffffffffffffffffffffff166304a6c93e6040518163ffffffff1660e01b8152600401602060405180830381865afa158015611023573d6000803e3d6000fd5b505050506040513d601f19601f8201168201806040525081019061104791906133b4565b6000848152600c6020526040908190205490517f6e5b6b2800000000000000000000000000000000000000000000000000000000815273ffffffffffffffffffffffffffffffffffffffff9290921691636e5b6b28916110ad9160040190815260200190565b602060405180830381865afa1580156110ca573d6000803e3d6000fd5b505050506040513d601f19601f820116820180604052508101906110ee9190613539565b9050611231847f000000000000000000000000000000000000000000000000000000000000000073ffffffffffffffffffffffffffffffffffffffff166312fde4b76040518163ffffffff1660e01b8152600401602060405180830381865afa15801561115f573d6000803e3d6000fd5b505050506040513d601f19601f8201168201806040525081019061118391906133b4565b837f000000000000000000000000000000000000000000000000000000000000000073ffffffffffffffffffffffffffffffffffffffff16637c8d933d6040518163ffffffff1660e01b8152600401602060405180830381865afa1580156111ef573d6000803e3d6000fd5b505050506040513d601f19601f8201168201806040525081019061121391906133b4565b73ffffffffffffffffffffffffffffffffffffffff16929190611e11565b600061123c600a5490565b905061124c600a80546001019055565b6112568582611ea6565b604080518281526020810184905273ffffffffffffffffffffffffffffffffffffffff8716916000917f2f00e3cdd69a77be7ed215ec7b2a36784dd158f921fca79ac29deffa353fe6ee910160405180910390a35050505050565b6112bc338383611ce4565b5050565b6112ca3383611836565b611356576040517f08c379a000000000000000000000000000000000000000000000000000000000815260206004820152602d60248201527f4552433732313a2063616c6c6572206973206e6f7420746f6b656e206f776e6560448201527f72206f7220617070726f766564000000000000000000000000000000000000006064820152608401610571565b61136284848484611ec0565b50505050565b60606000825167ffffffffffffffff81111561138657611386612f74565b6040519080825280602002602001820160405280156113af578160200160208202803683370190505b50905060005b8351811015610a53577f000000000000000000000000000000000000000000000000000000000000000073ffffffffffffffffffffffffffffffffffffffff166304a6c93e6040518163ffffffff1660e01b8152600401602060405180830381865afa158015611429573d6000803e3d6000fd5b505050506040513d601f19601f8201168201806040525081019061144d91906133b4565b73ffffffffffffffffffffffffffffffffffffffff16636e5b6b28600c600087858151811061147e5761147e613385565b60200260200101518152602001908152602001600020546040518263ffffffff1660e01b81526004016114b391815260200190565b602060405180830381865afa1580156114d0573d6000803e3d6000fd5b505050506040513d601f19601f820116820180604052508101906114f49190613539565b82828151811061150657611506613385565b60209081029190910101526001016113b5565b60606115248261170b565b600061152e611f63565b9050600081511161154e5760405180602001604052806000815250611579565b8061155884611f72565b604051602001611569929190613552565b6040516020818303038152906040525b9392505050565b7f000000000000000000000000000000000000000000000000000000000000000073ffffffffffffffffffffffffffffffffffffffff16636e9960c36040518163ffffffff1660e01b8152600401602060405180830381865afa1580156115eb573d6000803e3d6000fd5b505050506040513d601f19601f8201168201806040525081019061160f91906133b4565b73ffffffffffffffffffffffffffffffffffffffff163373ffffffffffffffffffffffffffffffffffffffff16146116a3576040517f08c379a000000000000000000000000000000000000000000000000000000000815260206004820152600960248201527f4e6f742041646d696e00000000000000000000000000000000000000000000006044820152606401610571565b6000918252600c602052604090912055565b60007fffffffff0000000000000000000000000000000000000000000000000000000082167f780e9d630000000000000000000000000000000000000000000000000000000014806103e157506103e182612030565b60008181526002602052604090205473ffffffffffffffffffffffffffffffffffffffff16610868576040517f08c379a000000000000000000000000000000000000000000000000000000000815260206004820152601860248201527f4552433732313a20696e76616c696420746f6b656e20494400000000000000006044820152606401610571565b600081815260046020526040902080547fffffffffffffffffffffffff00000000000000000000000000000000000000001673ffffffffffffffffffffffffffffffffffffffff841690811790915581906117f082610a5a565b73ffffffffffffffffffffffffffffffffffffffff167f8c5be1e5ebec7d5bd14f71427d1e84f3dd0314c0f7b2291e5b200ac8c7c3b92560405160405180910390a45050565b60008061184283610a5a565b90508073ffffffffffffffffffffffffffffffffffffffff168473ffffffffffffffffffffffffffffffffffffffff1614806118b0575073ffffffffffffffffffffffffffffffffffffffff80821660009081526005602090815260408083209388168352929052205460ff165b806118ee57508373ffffffffffffffffffffffffffffffffffffffff166118d684610479565b73ffffffffffffffffffffffffffffffffffffffff16145b949350505050565b8273ffffffffffffffffffffffffffffffffffffffff1661191682610a5a565b73ffffffffffffffffffffffffffffffffffffffff16146119b9576040517f08c379a000000000000000000000000000000000000000000000000000000000815260206004820152602560248201527f4552433732313a207472616e736665722066726f6d20696e636f72726563742060448201527f6f776e65720000000000000000000000000000000000000000000000000000006064820152608401610571565b73ffffffffffffffffffffffffffffffffffffffff8216611a5b576040517f08c379a0000000000000000000000000000000000000000000000000000000008152602060048201526024808201527f4552433732313a207472616e7366657220746f20746865207a65726f2061646460448201527f72657373000000000000000000000000000000000000000000000000000000006064820152608401610571565b611a688383836001612113565b8273ffffffffffffffffffffffffffffffffffffffff16611a8882610a5a565b73ffffffffffffffffffffffffffffffffffffffff1614611b2b576040517f08c379a000000000000000000000000000000000000000000000000000000000815260206004820152602560248201527f4552433732313a207472616e736665722066726f6d20696e636f72726563742060448201527f6f776e65720000000000000000000000000000000000000000000000000000006064820152608401610571565b600081815260046020908152604080832080547fffffffffffffffffffffffff000000000000000000000000000000000000000090811690915573ffffffffffffffffffffffffffffffffffffffff8781168086526003855283862080547fffffffffffffffffffffffffffffffffffffffffffffffffffffffffffffffff01905590871680865283862080546001019055868652600290945282852080549092168417909155905184937fddf252ad1be2c89b69c2b068fc378daa952ba7f163c4a11628f55a4df523b3ef91a4505050565b6000611c0982610a5a565b9050611c19816000846001612113565b611c2282610a5a565b600083815260046020908152604080832080547fffffffffffffffffffffffff000000000000000000000000000000000000000090811690915573ffffffffffffffffffffffffffffffffffffffff85168085526003845282852080547fffffffffffffffffffffffffffffffffffffffffffffffffffffffffffffffff0190558785526002909352818420805490911690555192935084927fddf252ad1be2c89b69c2b068fc378daa952ba7f163c4a11628f55a4df523b3ef908390a45050565b8173ffffffffffffffffffffffffffffffffffffffff168373ffffffffffffffffffffffffffffffffffffffff1603611d79576040517f08c379a000000000000000000000000000000000000000000000000000000000815260206004820152601960248201527f4552433732313a20617070726f766520746f2063616c6c6572000000000000006044820152606401610571565b73ffffffffffffffffffffffffffffffffffffffff83811660008181526005602090815260408083209487168084529482529182902080547fffffffffffffffffffffffffffffffffffffffffffffffffffffffffffffff001686151590811790915591519182527f17307eab39ab6107e8899845ad3d59bd9653f200f220920489ca2b5937696c31910160405180910390a3505050565b6040805173ffffffffffffffffffffffffffffffffffffffff85811660248301528416604482015260648082018490528251808303909101815260849091019091526020810180517bffffffffffffffffffffffffffffffffffffffffffffffffffffffff167f23b872dd0000000000000000000000000000000000000000000000000000000017905261136290859061211f565b6112bc82826040518060200160405280600081525061222b565b611ecb8484846118f6565b611ed7848484846122ce565b611362576040517f08c379a000000000000000000000000000000000000000000000000000000000815260206004820152603260248201527f4552433732313a207472616e7366657220746f206e6f6e20455243373231526560448201527f63656976657220696d706c656d656e74657200000000000000000000000000006064820152608401610571565b6060600b80546103f690613332565b60606000611f7f836124c1565b600101905060008167ffffffffffffffff811115611f9f57611f9f612f74565b6040519080825280601f01601f191660200182016040528015611fc9576020820181803683370190505b5090508181016020015b7fffffffffffffffffffffffffffffffffffffffffffffffffffffffffffffffff017f3031323334353637383961626364656600000000000000000000000000000000600a86061a8153600a8504945084611fd357509392505050565b60007fffffffff0000000000000000000000000000000000000000000000000000000082167f80ac58cd0000000000000000000000000000000000000000000000000000000014806120c357507fffffffff0000000000000000000000000000000000000000000000000000000082167f5b5e139f00000000000000000000000000000000000000000000000000000000145b806103e157507f01ffc9a7000000000000000000000000000000000000000000000000000000007fffffffff000000000000000000000000000000000000000000000000000000008316146103e1565b611362848484846125a3565b6000612181826040518060400160405280602081526020017f5361666545524332303a206c6f772d6c6576656c2063616c6c206661696c65648152508573ffffffffffffffffffffffffffffffffffffffff166127539092919063ffffffff16565b805190915015610639578080602001905181019061219f9190613581565b610639576040517f08c379a000000000000000000000000000000000000000000000000000000000815260206004820152602a60248201527f5361666545524332303a204552433230206f7065726174696f6e20646964206e60448201527f6f742073756363656564000000000000000000000000000000000000000000006064820152608401610571565b6122358383612762565b61224260008484846122ce565b610639576040517f08c379a000000000000000000000000000000000000000000000000000000000815260206004820152603260248201527f4552433732313a207472616e7366657220746f206e6f6e20455243373231526560448201527f63656976657220696d706c656d656e74657200000000000000000000000000006064820152608401610571565b600073ffffffffffffffffffffffffffffffffffffffff84163b156124b6576040517f150b7a0200000000000000000000000000000000000000000000000000000000815273ffffffffffffffffffffffffffffffffffffffff85169063150b7a029061234590339089908890889060040161359e565b6020604051808303816000875af192505050801561239e575060408051601f3d9081017fffffffffffffffffffffffffffffffffffffffffffffffffffffffffffffffe016820190925261239b918101906135e7565b60015b61246b573d8080156123cc576040519150601f19603f3d011682016040523d82523d6000602084013e6123d1565b606091505b508051600003612463576040517f08c379a000000000000000000000000000000000000000000000000000000000815260206004820152603260248201527f4552433732313a207472616e7366657220746f206e6f6e20455243373231526560448201527f63656976657220696d706c656d656e74657200000000000000000000000000006064820152608401610571565b805181602001fd5b7fffffffff00000000000000000000000000000000000000000000000000000000167f150b7a02000000000000000000000000000000000000000000000000000000001490506118ee565b506001949350505050565b6000807a184f03e93ff9f4daa797ed6e38ed64bf6a1f010000000000000000831061250a577a184f03e93ff9f4daa797ed6e38ed64bf6a1f010000000000000000830492506040015b6d04ee2d6d415b85acef81000000008310612536576d04ee2d6d415b85acef8100000000830492506020015b662386f26fc10000831061255457662386f26fc10000830492506010015b6305f5e100831061256c576305f5e100830492506008015b612710831061258057612710830492506004015b60648310612592576064830492506002015b600a83106103e15760010192915050565b6125af84848484612995565b6001811115612640576040517f08c379a000000000000000000000000000000000000000000000000000000000815260206004820152603560248201527f455243373231456e756d657261626c653a20636f6e736563757469766520747260448201527f616e7366657273206e6f7420737570706f7274656400000000000000000000006064820152608401610571565b8173ffffffffffffffffffffffffffffffffffffffff85166126a9576126a481600880546000838152600960205260408120829055600182018355919091527ff3f7a9fe364faab93b216da50a3214154f22a0a2b415b23a84c8169e8b636ee30155565b6126e6565b8373ffffffffffffffffffffffffffffffffffffffff168573ffffffffffffffffffffffffffffffffffffffff16146126e6576126e68582612a51565b73ffffffffffffffffffffffffffffffffffffffff841661270f5761270a81612b08565b61274c565b8473ffffffffffffffffffffffffffffffffffffffff168473ffffffffffffffffffffffffffffffffffffffff161461274c5761274c8482612bb7565b5050505050565b60606118ee8484600085612c08565b73ffffffffffffffffffffffffffffffffffffffff82166127df576040517f08c379a000000000000000000000000000000000000000000000000000000000815260206004820181905260248201527f4552433732313a206d696e7420746f20746865207a65726f20616464726573736044820152606401610571565b60008181526002602052604090205473ffffffffffffffffffffffffffffffffffffffff161561286b576040517f08c379a000000000000000000000000000000000000000000000000000000000815260206004820152601c60248201527f4552433732313a20746f6b656e20616c7265616479206d696e746564000000006044820152606401610571565b612879600083836001612113565b60008181526002602052604090205473ffffffffffffffffffffffffffffffffffffffff1615612905576040517f08c379a000000000000000000000000000000000000000000000000000000000815260206004820152601c60248201527f4552433732313a20746f6b656e20616c7265616479206d696e746564000000006044820152606401610571565b73ffffffffffffffffffffffffffffffffffffffff8216600081815260036020908152604080832080546001019055848352600290915280822080547fffffffffffffffffffffffff0000000000000000000000000000000000000000168417905551839291907fddf252ad1be2c89b69c2b068fc378daa952ba7f163c4a11628f55a4df523b3ef908290a45050565b60018111156113625773ffffffffffffffffffffffffffffffffffffffff8416156129f55773ffffffffffffffffffffffffffffffffffffffff8416600090815260036020526040812080548392906129ef908490613633565b90915550505b73ffffffffffffffffffffffffffffffffffffffff8316156113625773ffffffffffffffffffffffffffffffffffffffff831660009081526003602052604081208054839290612a46908490613646565b909155505050505050565b60006001612a5e84610ae6565b612a689190613633565b600083815260076020526040902054909150808214612ac85773ffffffffffffffffffffffffffffffffffffffff841660009081526006602090815260408083208584528252808320548484528184208190558352600790915290208190555b50600091825260076020908152604080842084905573ffffffffffffffffffffffffffffffffffffffff9094168352600681528383209183525290812055565b600854600090612b1a90600190613633565b60008381526009602052604081205460088054939450909284908110612b4257612b42613385565b906000526020600020015490508060088381548110612b6357612b63613385565b6000918252602080832090910192909255828152600990915260408082208490558582528120556008805480612b9b57612b9b613659565b6001900381819060005260206000200160009055905550505050565b6000612bc283610ae6565b73ffffffffffffffffffffffffffffffffffffffff9093166000908152600660209081526040808320868452825280832085905593825260079052919091209190915550565b606082471015612c9a576040517f08c379a000000000000000000000000000000000000000000000000000000000815260206004820152602660248201527f416464726573733a20696e73756666696369656e742062616c616e636520666f60448201527f722063616c6c00000000000000000000000000000000000000000000000000006064820152608401610571565b6000808673ffffffffffffffffffffffffffffffffffffffff168587604051612cc39190613688565b60006040518083038185875af1925050503d8060008114612d00576040519150601f19603f3d011682016040523d82523d6000602084013e612d05565b606091505b5091509150612d1687838387612d21565b979650505050505050565b60608315612db7578251600003612db05773ffffffffffffffffffffffffffffffffffffffff85163b612db0576040517f08c379a000000000000000000000000000000000000000000000000000000000815260206004820152601d60248201527f416464726573733a2063616c6c20746f206e6f6e2d636f6e74726163740000006044820152606401610571565b50816118ee565b6118ee8383815115612dcc5781518083602001fd5b806040517f08c379a00000000000000000000000000000000000000000000000000000000081526004016105719190612eb9565b7fffffffff000000000000000000000000000000000000000000000000000000008116811461086857600080fd5b600060208284031215612e4057600080fd5b813561157981612e00565b60005b83811015612e66578181015183820152602001612e4e565b50506000910152565b60008151808452612e87816020860160208601612e4b565b601f017fffffffffffffffffffffffffffffffffffffffffffffffffffffffffffffffe0169290920160200192915050565b6020815260006115796020830184612e6f565b600060208284031215612ede57600080fd5b5035919050565b73ffffffffffffffffffffffffffffffffffffffff8116811461086857600080fd5b60008060408385031215612f1a57600080fd5b8235612f2581612ee5565b946020939093013593505050565b600080600060608486031215612f4857600080fd5b8335612f5381612ee5565b92506020840135612f6381612ee5565b929592945050506040919091013590565b7f4e487b7100000000000000000000000000000000000000000000000000000000600052604160045260246000fd5b604051601f82017fffffffffffffffffffffffffffffffffffffffffffffffffffffffffffffffe016810167ffffffffffffffff81118282101715612fea57612fea612f74565b604052919050565b6000602080838503121561300557600080fd5b823567ffffffffffffffff8082111561301d57600080fd5b818501915085601f83011261303157600080fd5b81358181111561304357613043612f74565b8060051b9150613054848301612fa3565b818152918301840191848101908884111561306e57600080fd5b938501935b8385101561308c57843582529385019390850190613073565b98975050505050505050565b6020808252825182820181905260009190848201906040850190845b818110156130e657835173ffffffffffffffffffffffffffffffffffffffff16835292840192918401916001016130b4565b50909695505050505050565b60006020828403121561310457600080fd5b813561157981612ee5565b6000806020838503121561312257600080fd5b823567ffffffffffffffff8082111561313a57600080fd5b818501915085601f83011261314e57600080fd5b81358181111561315d57600080fd5b86602082850101111561316f57600080fd5b60209290920196919550909350505050565b801515811461086857600080fd5b600080604083850312156131a257600080fd5b82356131ad81612ee5565b915060208301356131bd81613181565b809150509250929050565b600080600080608085870312156131de57600080fd5b84356131e981612ee5565b93506020858101356131fa81612ee5565b935060408601359250606086013567ffffffffffffffff8082111561321e57600080fd5b818801915088601f83011261323257600080fd5b81358181111561324457613244612f74565b613274847fffffffffffffffffffffffffffffffffffffffffffffffffffffffffffffffe0601f84011601612fa3565b9150808252898482850101111561328a57600080fd5b808484018584013760008482840101525080935050505092959194509250565b6020808252825182820181905260009190848201906040850190845b818110156130e6578351835292840192918401916001016132c6565b600080604083850312156132f557600080fd5b50508035926020909101359150565b6000806040838503121561331757600080fd5b823561332281612ee5565b915060208301356131bd81612ee5565b600181811c9082168061334657607f821691505b60208210810361337f577f4e487b7100000000000000000000000000000000000000000000000000000000600052602260045260246000fd5b50919050565b7f4e487b7100000000000000000000000000000000000000000000000000000000600052603260045260246000fd5b6000602082840312156133c657600080fd5b815161157981612ee5565b601f82111561063957600081815260208120601f850160051c810160208610156133f85750805b601f850160051c820191505b8181101561341757828155600101613404565b505050505050565b67ffffffffffffffff83111561343757613437612f74565b61344b836134458354613332565b836133d1565b6000601f84116001811461349d57600085156134675750838201355b7fffffffffffffffffffffffffffffffffffffffffffffffffffffffffffffffff600387901b1c1916600186901b17835561274c565b6000838152602090207fffffffffffffffffffffffffffffffffffffffffffffffffffffffffffffffe0861690835b828110156134ec57868501358255602094850194600190920191016134cc565b5086821015613527577fffffffffffffffffffffffffffffffffffffffffffffffffffffffffffffffff60f88860031b161c19848701351681555b505060018560011b0183555050505050565b60006020828403121561354b57600080fd5b5051919050565b60008351613564818460208801612e4b565b835190830190613578818360208801612e4b565b01949350505050565b60006020828403121561359357600080fd5b815161157981613181565b600073ffffffffffffffffffffffffffffffffffffffff8087168352808616602084015250836040830152608060608301526135dd6080830184612e6f565b9695505050505050565b6000602082840312156135f957600080fd5b815161157981612e00565b7f4e487b7100000000000000000000000000000000000000000000000000000000600052601160045260246000fd5b818103818111156103e1576103e1613604565b808201808211156103e1576103e1613604565b7f4e487b7100000000000000000000000000000000000000000000000000000000600052603160045260246000fd5b6000825161369a818460208701612e4b565b919091019291505056fea264697066735822122079f017159eb56cbf92d6837e7945053364738f82e46a60d0e16d828cdcda778564736f6c63430008130033",
    "linkReferences": {},
    "deployedLinkReferences": {}
}