{
  "_format": "hh-sol-artifact-1",
  "contractName": "ElementalRaidersVials",
  "sourceName": "contracts/games/ElementalRaiders/Vials/ElementalRaidersVials.sol",
  "abi": [
    {
      "inputs": [
        {
          "internalType": "string",
          "name": "_baseUri",
          "type": "string"
        },
        {
          "internalType": "address",
          "name": "_g4alProxy",
          "type": "address"
        },
        {
          "internalType": "uint16",
          "name": "_royaltyFraction",
          "type": "uint16"
        }
      ],
      "stateMutability": "nonpayable",
      "type": "constructor"
    },
    {
      "anonymous": false,
      "inputs": [
        {
          "indexed": true,
          "internalType": "address",
          "name": "account",
          "type": "address"
        },
        {
          "indexed": true,
          "internalType": "address",
          "name": "operator",
          "type": "address"
        },
        {
          "indexed": false,
          "internalType": "bool",
          "name": "approved",
          "type": "bool"
        }
      ],
      "name": "ApprovalForAll",
      "type": "event"
    },
    {
      "anonymous": false,
      "inputs": [
        {
          "indexed": true,
          "internalType": "address",
          "name": "from",
          "type": "address"
        },
        {
          "indexed": true,
          "internalType": "address",
          "name": "to",
          "type": "address"
        },
        {
          "indexed": false,
          "internalType": "uint256",
          "name": "id",
          "type": "uint256"
        },
        {
          "indexed": false,
          "internalType": "uint256",
          "name": "amount",
          "type": "uint256"
        },
        {
          "indexed": false,
          "internalType": "uint256",
          "name": "price",
          "type": "uint256"
        }
      ],
      "name": "Mint",
      "type": "event"
    },
    {
      "anonymous": false,
      "inputs": [
        {
          "indexed": true,
          "internalType": "address",
          "name": "from",
          "type": "address"
        },
        {
          "indexed": true,
          "internalType": "address",
          "name": "to",
          "type": "address"
        },
        {
          "indexed": false,
          "internalType": "uint256",
          "name": "id",
          "type": "uint256"
        },
        {
          "indexed": false,
          "internalType": "uint256",
          "name": "amount",
          "type": "uint256"
        }
      ],
      "name": "MintWhitelisted",
      "type": "event"
    },
    {
      "anonymous": false,
      "inputs": [
        {
          "indexed": true,
          "internalType": "address",
          "name": "operator",
          "type": "address"
        },
        {
          "indexed": true,
          "internalType": "address",
          "name": "from",
          "type": "address"
        },
        {
          "indexed": true,
          "internalType": "address",
          "name": "to",
          "type": "address"
        },
        {
          "indexed": false,
          "internalType": "uint256[]",
          "name": "ids",
          "type": "uint256[]"
        },
        {
          "indexed": false,
          "internalType": "uint256[]",
          "name": "values",
          "type": "uint256[]"
        }
      ],
      "name": "TransferBatch",
      "type": "event"
    },
    {
      "anonymous": false,
      "inputs": [
        {
          "indexed": true,
          "internalType": "address",
          "name": "operator",
          "type": "address"
        },
        {
          "indexed": true,
          "internalType": "address",
          "name": "from",
          "type": "address"
        },
        {
          "indexed": true,
          "internalType": "address",
          "name": "to",
          "type": "address"
        },
        {
          "indexed": false,
          "internalType": "uint256",
          "name": "id",
          "type": "uint256"
        },
        {
          "indexed": false,
          "internalType": "uint256",
          "name": "value",
          "type": "uint256"
        }
      ],
      "name": "TransferSingle",
      "type": "event"
    },
    {
      "anonymous": false,
      "inputs": [
        {
          "indexed": false,
          "internalType": "string",
          "name": "value",
          "type": "string"
        },
        {
          "indexed": true,
          "internalType": "uint256",
          "name": "id",
          "type": "uint256"
        }
      ],
      "name": "URI",
      "type": "event"
    },
    {
      "anonymous": false,
      "inputs": [
        {
          "indexed": false,
          "internalType": "uint256",
          "name": "vialId",
          "type": "uint256"
        },
        {
          "indexed": false,
          "internalType": "uint256",
          "name": "price",
          "type": "uint256"
        },
        {
          "indexed": false,
          "internalType": "uint256",
          "name": "maxSupplySale",
          "type": "uint256"
        },
        {
          "indexed": false,
          "internalType": "uint256",
          "name": "maxClaimableSupply",
          "type": "uint256"
        },
        {
          "indexed": false,
          "internalType": "bytes32",
          "name": "hashRoot",
          "type": "bytes32"
        }
      ],
      "name": "VialCreated",
      "type": "event"
    },
    {
      "anonymous": false,
      "inputs": [
        {
          "indexed": true,
          "internalType": "address",
          "name": "owner",
          "type": "address"
        },
        {
          "indexed": false,
          "internalType": "uint256",
          "name": "vialId",
          "type": "uint256"
        }
      ],
      "name": "vialBurned",
      "type": "event"
    },
    {
      "inputs": [
        {
          "internalType": "address",
          "name": "account",
          "type": "address"
        },
        {
          "internalType": "uint256",
          "name": "id",
          "type": "uint256"
        }
      ],
      "name": "balanceOf",
      "outputs": [
        {
          "internalType": "uint256",
          "name": "",
          "type": "uint256"
        }
      ],
      "stateMutability": "view",
      "type": "function"
    },
    {
      "inputs": [
        {
          "internalType": "address[]",
          "name": "accounts",
          "type": "address[]"
        },
        {
          "internalType": "uint256[]",
          "name": "ids",
          "type": "uint256[]"
        }
      ],
      "name": "balanceOfBatch",
      "outputs": [
        {
          "internalType": "uint256[]",
          "name": "",
          "type": "uint256[]"
        }
      ],
      "stateMutability": "view",
      "type": "function"
    },
    {
      "inputs": [
        {
          "internalType": "uint256",
          "name": "vialId",
          "type": "uint256"
        }
      ],
      "name": "burn",
      "outputs": [],
      "stateMutability": "nonpayable",
      "type": "function"
    },
    {
      "inputs": [
        {
          "internalType": "uint256",
          "name": "price",
          "type": "uint256"
        },
        {
          "internalType": "uint256",
          "name": "maxSupplySale",
          "type": "uint256"
        },
        {
          "internalType": "uint256",
          "name": "maxClaimableSupply",
          "type": "uint256"
        },
        {
          "internalType": "bytes32",
          "name": "hashRoot",
          "type": "bytes32"
        }
      ],
      "name": "createVial",
      "outputs": [],
      "stateMutability": "nonpayable",
      "type": "function"
    },
    {
      "inputs": [
        {
          "internalType": "address",
          "name": "account",
          "type": "address"
        },
        {
          "internalType": "address",
          "name": "operator",
          "type": "address"
        }
      ],
      "name": "isApprovedForAll",
      "outputs": [
        {
          "internalType": "bool",
          "name": "",
          "type": "bool"
        }
      ],
      "stateMutability": "view",
      "type": "function"
    },
    {
      "inputs": [
        {
          "internalType": "uint256",
          "name": "",
          "type": "uint256"
        },
        {
          "internalType": "address",
          "name": "",
          "type": "address"
        }
      ],
      "name": "isMinted",
      "outputs": [
        {
          "internalType": "bool",
          "name": "",
          "type": "bool"
        }
      ],
      "stateMutability": "view",
      "type": "function"
    },
    {
      "inputs": [
        {
          "internalType": "address",
          "name": "to",
          "type": "address"
        },
        {
          "internalType": "uint256",
          "name": "vialId",
          "type": "uint256"
        }
      ],
      "name": "mint",
      "outputs": [],
      "stateMutability": "nonpayable",
      "type": "function"
    },
    {
      "inputs": [
        {
          "internalType": "address",
          "name": "to",
          "type": "address"
        },
        {
          "internalType": "uint256",
          "name": "vialId",
          "type": "uint256"
        },
        {
          "internalType": "bytes32[]",
          "name": "proof",
          "type": "bytes32[]"
        }
      ],
      "name": "mintWhitelisted",
      "outputs": [],
      "stateMutability": "nonpayable",
      "type": "function"
    },
    {
      "inputs": [
        {
          "internalType": "uint256",
          "name": "",
          "type": "uint256"
        },
        {
          "internalType": "uint256",
          "name": "salePrice",
          "type": "uint256"
        }
      ],
      "name": "royaltyInfo",
      "outputs": [
        {
          "internalType": "address",
          "name": "",
          "type": "address"
        },
        {
          "internalType": "uint256",
          "name": "",
          "type": "uint256"
        }
      ],
      "stateMutability": "view",
      "type": "function"
    },
    {
      "inputs": [
        {
          "internalType": "address",
          "name": "from",
          "type": "address"
        },
        {
          "internalType": "address",
          "name": "to",
          "type": "address"
        },
        {
          "internalType": "uint256[]",
          "name": "ids",
          "type": "uint256[]"
        },
        {
          "internalType": "uint256[]",
          "name": "amounts",
          "type": "uint256[]"
        },
        {
          "internalType": "bytes",
          "name": "data",
          "type": "bytes"
        }
      ],
      "name": "safeBatchTransferFrom",
      "outputs": [],
      "stateMutability": "nonpayable",
      "type": "function"
    },
    {
      "inputs": [
        {
          "internalType": "address",
          "name": "from",
          "type": "address"
        },
        {
          "internalType": "address",
          "name": "to",
          "type": "address"
        },
        {
          "internalType": "uint256",
          "name": "id",
          "type": "uint256"
        },
        {
          "internalType": "uint256",
          "name": "amount",
          "type": "uint256"
        },
        {
          "internalType": "bytes",
          "name": "data",
          "type": "bytes"
        }
      ],
      "name": "safeTransferFrom",
      "outputs": [],
      "stateMutability": "nonpayable",
      "type": "function"
    },
    {
      "inputs": [
        {
          "internalType": "address",
          "name": "operator",
          "type": "address"
        },
        {
          "internalType": "bool",
          "name": "approved",
          "type": "bool"
        }
      ],
      "name": "setApprovalForAll",
      "outputs": [],
      "stateMutability": "nonpayable",
      "type": "function"
    },
    {
      "inputs": [
        {
          "internalType": "uint16",
          "name": "feeNumerator",
          "type": "uint16"
        }
      ],
      "name": "setTokenRoyalty",
      "outputs": [],
      "stateMutability": "nonpayable",
      "type": "function"
    },
    {
      "inputs": [
        {
          "internalType": "bytes4",
          "name": "interfaceId",
          "type": "bytes4"
        }
      ],
      "name": "supportsInterface",
      "outputs": [
        {
          "internalType": "bool",
          "name": "",
          "type": "bool"
        }
      ],
      "stateMutability": "view",
      "type": "function"
    },
    {
      "inputs": [
        {
          "internalType": "uint256",
          "name": "tokenId",
          "type": "uint256"
        }
      ],
      "name": "uri",
      "outputs": [
        {
          "internalType": "string",
          "name": "",
          "type": "string"
        }
      ],
      "stateMutability": "view",
      "type": "function"
    },
    {
      "inputs": [],
      "name": "vialCounter",
      "outputs": [
        {
          "internalType": "uint256",
          "name": "",
          "type": "uint256"
        }
      ],
      "stateMutability": "view",
      "type": "function"
    },
    {
      "inputs": [
        {
          "internalType": "uint256",
          "name": "",
          "type": "uint256"
        }
      ],
      "name": "vials",
      "outputs": [
        {
          "internalType": "uint256",
          "name": "price",
          "type": "uint256"
        },
        {
          "internalType": "uint256",
          "name": "maxSupplySale",
          "type": "uint256"
        },
        {
          "internalType": "uint256",
          "name": "totalSold",
          "type": "uint256"
        },
        {
          "internalType": "uint256",
          "name": "maxClaimableSupply",
          "type": "uint256"
        },
        {
          "internalType": "uint256",
          "name": "totalClaimed",
          "type": "uint256"
        },
        {
          "internalType": "bytes32",
          "name": "hashRoot",
          "type": "bytes32"
        }
      ],
      "stateMutability": "view",
      "type": "function"
    }
  ],
  "bytecode": "0x60c0604052600060a09081526003906200001a9082620001af565b503480156200002857600080fd5b5060405162003bb438038062003bb48339810160408190526200004b91620002ab565b826200005781620000ea565b506001600160a01b038216620000b35760405162461bcd60e51b815260206004820152601360248201527f55736520612076616c6964206164647265737300000000000000000000000000604482015260640160405180910390fd5b6001600160a01b038216608052620000cb83620000fc565b6005805461ffff191661ffff9290921691909117905550620003a59050565b6002620000f88282620001af565b5050565b6003620000f88282620001af565b634e487b7160e01b600052604160045260246000fd5b600181811c908216806200013557607f821691505b6020821081036200015657634e487b7160e01b600052602260045260246000fd5b50919050565b601f821115620001aa57600081815260208120601f850160051c81016020861015620001855750805b601f850160051c820191505b81811015620001a65782815560010162000191565b5050505b505050565b81516001600160401b03811115620001cb57620001cb6200010a565b620001e381620001dc845462000120565b846200015c565b602080601f8311600181146200021b5760008415620002025750858301515b600019600386901b1c1916600185901b178555620001a6565b600085815260208120601f198616915b828110156200024c578886015182559484019460019091019084016200022b565b50858210156200026b5787850151600019600388901b60f8161c191681555b5050505050600190811b01905550565b80516001600160a01b03811681146200029357600080fd5b919050565b805161ffff811681146200029357600080fd5b600080600060608486031215620002c157600080fd5b83516001600160401b0380821115620002d957600080fd5b818601915086601f830112620002ee57600080fd5b8151818111156200030357620003036200010a565b604051601f8201601f19908116603f011681019083821181831017156200032e576200032e6200010a565b816040528281526020935089848487010111156200034b57600080fd5b600091505b828210156200036f578482018401518183018501529083019062000350565b60008484830101528097505050506200038a8187016200027b565b935050506200039c6040850162000298565b90509250925092565b6080516137c9620003eb600039600081816105b10152818161071301528181610a1501528181610ae101528181610c0f01528181610c9f015261126501526137c96000f3fe608060405234801561001057600080fd5b506004361061011a5760003560e01c806342966c68116100b2578063609bbd7611610081578063a23baab011610066578063a23baab0146102e7578063e985e9c514610315578063f242432a1461035e57600080fd5b8063609bbd76146102c1578063a22cb465146102d457600080fd5b806342966c68146102725780634e1273f414610285578063510e2eec146102a557806353d67f54146102ae57600080fd5b80632a55205a116100ee5780632a55205a146101f85780632eb2c2d6146102375780633c4fb6821461024c57806340c10f191461025f57600080fd5b8062fdd58e1461011f57806301ffc9a7146101455780630e89341c14610168578063187b9bc814610188575b600080fd5b61013261012d366004612b90565b610371565b6040519081526020015b60405180910390f35b610158610153366004612bea565b610451565b604051901515815260200161013c565b61017b610176366004612c07565b6104a7565b60405161013c9190612c8e565b6101cb610196366004612c07565b600760205260009081526040902080546001820154600283015460038401546004850154600590950154939492939192909186565b604080519687526020870195909552938501929092526060840152608083015260a082015260c00161013c565b61020b610206366004612ca1565b610587565b6040805173ffffffffffffffffffffffffffffffffffffffff909316835260208301919091520161013c565b61024a610245366004612e64565b610648565b005b61024a61025a366004612f12565b610711565b61024a61026d366004612b90565b610912565b61024a610280366004612c07565b610dc8565b610298610293366004612f44565b610e0c565b60405161013c919061304c565b61013260065481565b61024a6102bc36600461305f565b610f64565b61024a6102cf3660046130eb565b611263565b61024a6102e236600461311d565b611450565b6101586102f5366004613156565b600860209081526000928352604080842090915290825290205460ff1681565b61015861032336600461317b565b73ffffffffffffffffffffffffffffffffffffffff918216600090815260016020908152604080832093909416825291909152205460ff1690565b61024a61036c3660046131a9565b61145f565b600073ffffffffffffffffffffffffffffffffffffffff831661041b576040517f08c379a000000000000000000000000000000000000000000000000000000000815260206004820152602a60248201527f455243313135353a2061646472657373207a65726f206973206e6f742061207660448201527f616c6964206f776e65720000000000000000000000000000000000000000000060648201526084015b60405180910390fd5b5060008181526020818152604080832073ffffffffffffffffffffffffffffffffffffffff861684529091529020545b92915050565b60007f2a55205a000000000000000000000000000000000000000000000000000000007fffffffff000000000000000000000000000000000000000000000000000000008316148061044b575061044b82611521565b6000818152600460205260408120805460609291906104c590613212565b80601f01602080910402602001604051908101604052809291908181526020018280546104f190613212565b801561053e5780601f106105135761010080835404028352916020019161053e565b820191906000526020600020905b81548152906001019060200180831161052157829003601f168201915b50505050509050600081511161055c5761055783611604565b610580565b600381604051602001610570929190613265565b6040516020818303038152906040525b9392505050565b60055460009081908190612710906105a39061ffff1686613339565b6105ad9190613350565b90507f000000000000000000000000000000000000000000000000000000000000000073ffffffffffffffffffffffffffffffffffffffff166312fde4b76040518163ffffffff1660e01b8152600401602060405180830381865afa15801561061a573d6000803e3d6000fd5b505050506040513d601f19601f8201168201806040525081019061063e919061338b565b9590945092505050565b73ffffffffffffffffffffffffffffffffffffffff851633148061067157506106718533610323565b6106fd576040517f08c379a000000000000000000000000000000000000000000000000000000000815260206004820152602e60248201527f455243313135353a2063616c6c6572206973206e6f7420746f6b656e206f776e60448201527f6572206f7220617070726f7665640000000000000000000000000000000000006064820152608401610412565b61070a8585858585611698565b5050505050565b7f000000000000000000000000000000000000000000000000000000000000000073ffffffffffffffffffffffffffffffffffffffff16636e9960c36040518163ffffffff1660e01b8152600401602060405180830381865afa15801561077c573d6000803e3d6000fd5b505050506040513d601f19601f820116820180604052508101906107a0919061338b565b73ffffffffffffffffffffffffffffffffffffffff163373ffffffffffffffffffffffffffffffffffffffff1614610834576040517f08c379a000000000000000000000000000000000000000000000000000000000815260206004820152600960248201527f4e6f742061646d696e00000000000000000000000000000000000000000000006044820152606401610412565b6006546040805160c08101825286815260208082018781526000838501818152606085018981526080860183815260a087018a81528985526007909652969092209451855591516001850155905160028401555160038301559151600482015590516005909101556108ae816108a9816119d2565b611a90565b6108b98160016133a8565b600655604080518281526020810187905290810185905260608101849052608081018390527f595afd8c66bfd69f8a0789e8ed87a456767c768c37004bc8d6c0ccd46b13f43a9060a00160405180910390a15050505050565b806006541161097d576040517f08c379a000000000000000000000000000000000000000000000000000000000815260206004820152600e60248201527f496e76616c6964207669616c49640000000000000000000000000000000000006044820152606401610412565b600081815260076020526040812060018101546002820154106109fc576040517f08c379a000000000000000000000000000000000000000000000000000000000815260206004820152601860248201527f7669616c4964206d6178737570706c79207265616368656400000000000000006044820152606401610412565b600281018054906000610a0e836133bb565b91905055507f000000000000000000000000000000000000000000000000000000000000000073ffffffffffffffffffffffffffffffffffffffff16636e9960c36040518163ffffffff1660e01b8152600401602060405180830381865afa158015610a7e573d6000803e3d6000fd5b505050506040513d601f19601f82011682018060405250810190610aa2919061338b565b73ffffffffffffffffffffffffffffffffffffffff163303610adf57610ada8484600160405180602001604052806000815250611aed565b610d66565b7f000000000000000000000000000000000000000000000000000000000000000073ffffffffffffffffffffffffffffffffffffffff166304a6c93e6040518163ffffffff1660e01b8152600401602060405180830381865afa158015610b4a573d6000803e3d6000fd5b505050506040513d601f19601f82011682018060405250810190610b6e919061338b565b81546040517f6e5b6b2800000000000000000000000000000000000000000000000000000000815273ffffffffffffffffffffffffffffffffffffffff9290921691636e5b6b2891610bc69160040190815260200190565b602060405180830381865afa158015610be3573d6000803e3d6000fd5b505050506040513d601f19601f82011682018060405250810190610c0791906133f3565b9150610d4a847f000000000000000000000000000000000000000000000000000000000000000073ffffffffffffffffffffffffffffffffffffffff166312fde4b76040518163ffffffff1660e01b8152600401602060405180830381865afa158015610c78573d6000803e3d6000fd5b505050506040513d601f19601f82011682018060405250810190610c9c919061338b565b847f000000000000000000000000000000000000000000000000000000000000000073ffffffffffffffffffffffffffffffffffffffff16637c8d933d6040518163ffffffff1660e01b8152600401602060405180830381865afa158015610d08573d6000803e3d6000fd5b505050506040513d601f19601f82011682018060405250810190610d2c919061338b565b73ffffffffffffffffffffffffffffffffffffffff16929190611c5e565b610d668484600160405180602001604052806000815250611aed565b604080518481526001602082015290810183905273ffffffffffffffffffffffffffffffffffffffff8516906000907f458f5fa412d0f69b08dd84872b0215675cc67bc1d5b6fd93300a1c3878b861969060600160405180910390a350505050565b610dd433826001611cf9565b60405181815233907f3937260877640a1298aa18aea5fb713768eb12da3ef2750c516937f9d734df669060200160405180910390a250565b60608151835114610e9f576040517f08c379a000000000000000000000000000000000000000000000000000000000815260206004820152602960248201527f455243313135353a206163636f756e747320616e6420696473206c656e67746860448201527f206d69736d6174636800000000000000000000000000000000000000000000006064820152608401610412565b6000835167ffffffffffffffff811115610ebb57610ebb612cc3565b604051908082528060200260200182016040528015610ee4578160200160208202803683370190505b50905060005b8451811015610f5c57610f2f858281518110610f0857610f0861340c565b6020026020010151858381518110610f2257610f2261340c565b6020026020010151610371565b828281518110610f4157610f4161340c565b6020908102919091010152610f55816133bb565b9050610eea565b509392505050565b600083815260086020908152604080832033845290915290205483908390839060ff1615610fee576040517f08c379a000000000000000000000000000000000000000000000000000000000815260206004820152601460248201527f5669616c20616c726561647920636c61696d65640000000000000000000000006044820152606401610412565b600061108f83838080602002602001604051908101604052809392919081815260200183836020028082843760009201829052508981526007602090815260409182902060050154915191945061107493503392500160609190911b7fffffffffffffffffffffffffffffffffffffffff00000000000000000000000016815260140190565b60405160208183030381529060405280519060200120611f03565b90508061111e576040517f08c379a000000000000000000000000000000000000000000000000000000000815260206004820152602860248201527f596f7520617265206e6f7420696e207468652077686974656c69737420666f7260448201527f206d696e74696e670000000000000000000000000000000000000000000000006064820152608401610412565b8660065411611189576040517f08c379a000000000000000000000000000000000000000000000000000000000815260206004820152600e60248201527f496e76616c6964207669616c49640000000000000000000000000000000000006044820152606401610412565b6000878152600860209081526040808320338452825280832080547fffffffffffffffffffffffffffffffffffffffffffffffffffffffffffffff00166001179055898352600790915281206004018054916111e4836133bb565b91905055506112053388600160405180602001604052806000815250611aed565b604080518881526001602082015273ffffffffffffffffffffffffffffffffffffffff8a16916000917f4dcbc25e8feae1fceebfdbd4da3233de4b48d76b988af55bbb16fb2f679ef43c910160405180910390a35050505050505050565b7f000000000000000000000000000000000000000000000000000000000000000073ffffffffffffffffffffffffffffffffffffffff16636e9960c36040518163ffffffff1660e01b8152600401602060405180830381865afa1580156112ce573d6000803e3d6000fd5b505050506040513d601f19601f820116820180604052508101906112f2919061338b565b73ffffffffffffffffffffffffffffffffffffffff163373ffffffffffffffffffffffffffffffffffffffff1614611386576040517f08c379a000000000000000000000000000000000000000000000000000000000815260206004820152600960248201527f4e6f742061646d696e00000000000000000000000000000000000000000000006044820152606401610412565b6127118161ffff161061141b576040517f08c379a000000000000000000000000000000000000000000000000000000000815260206004820152602160248201527f526f79616c7479206665652077696c6c206578636565642073616c655072696360448201527f65000000000000000000000000000000000000000000000000000000000000006064820152608401610412565b600580547fffffffffffffffffffffffffffffffffffffffffffffffffffffffffffff00001661ffff92909216919091179055565b61145b338383611f19565b5050565b73ffffffffffffffffffffffffffffffffffffffff851633148061148857506114888533610323565b611514576040517f08c379a000000000000000000000000000000000000000000000000000000000815260206004820152602e60248201527f455243313135353a2063616c6c6572206973206e6f7420746f6b656e206f776e60448201527f6572206f7220617070726f7665640000000000000000000000000000000000006064820152608401610412565b61070a858585858561206c565b60007fffffffff0000000000000000000000000000000000000000000000000000000082167fd9b67a260000000000000000000000000000000000000000000000000000000014806115b457507fffffffff0000000000000000000000000000000000000000000000000000000082167f0e89341c00000000000000000000000000000000000000000000000000000000145b8061044b57507f01ffc9a7000000000000000000000000000000000000000000000000000000007fffffffff0000000000000000000000000000000000000000000000000000000083161461044b565b60606002805461161390613212565b80601f016020809104026020016040519081016040528092919081815260200182805461163f90613212565b801561168c5780601f106116615761010080835404028352916020019161168c565b820191906000526020600020905b81548152906001019060200180831161166f57829003601f168201915b50505050509050919050565b8151835114611729576040517f08c379a000000000000000000000000000000000000000000000000000000000815260206004820152602860248201527f455243313135353a2069647320616e6420616d6f756e7473206c656e6774682060448201527f6d69736d617463680000000000000000000000000000000000000000000000006064820152608401610412565b73ffffffffffffffffffffffffffffffffffffffff84166117cc576040517f08c379a000000000000000000000000000000000000000000000000000000000815260206004820152602560248201527f455243313135353a207472616e7366657220746f20746865207a65726f20616460448201527f64726573730000000000000000000000000000000000000000000000000000006064820152608401610412565b3360005b845181101561193d5760008582815181106117ed576117ed61340c565b60200260200101519050600085838151811061180b5761180b61340c565b6020908102919091018101516000848152808352604080822073ffffffffffffffffffffffffffffffffffffffff8e1683529093529190912054909150818110156118d8576040517f08c379a000000000000000000000000000000000000000000000000000000000815260206004820152602a60248201527f455243313135353a20696e73756666696369656e742062616c616e636520666f60448201527f72207472616e73666572000000000000000000000000000000000000000000006064820152608401610412565b60008381526020818152604080832073ffffffffffffffffffffffffffffffffffffffff8e8116855292528083208585039055908b168252812080548492906119229084906133a8565b9250508190555050505080611936906133bb565b90506117d0565b508473ffffffffffffffffffffffffffffffffffffffff168673ffffffffffffffffffffffffffffffffffffffff168273ffffffffffffffffffffffffffffffffffffffff167f4a39dc06d4c0dbc64b70af90fd698a233a518aa5d07e595d983b8c0526c8f7fb87876040516119b492919061343b565b60405180910390a46119ca8187878787876122aa565b505050505050565b606060006119df83612534565b600101905060008167ffffffffffffffff8111156119ff576119ff612cc3565b6040519080825280601f01601f191660200182016040528015611a29576020820181803683370190505b5090508181016020015b7fffffffffffffffffffffffffffffffffffffffffffffffffffffffffffffffff017f3031323334353637383961626364656600000000000000000000000000000000600a86061a8153600a8504945084611a3357509392505050565b6000828152600460205260409020611aa882826134af565b50817f6bb7ff708619ba0610cba295a58592e0451dee2622938c8755667688daf3529b611ad4846104a7565b604051611ae19190612c8e565b60405180910390a25050565b73ffffffffffffffffffffffffffffffffffffffff8416611b90576040517f08c379a000000000000000000000000000000000000000000000000000000000815260206004820152602160248201527f455243313135353a206d696e7420746f20746865207a65726f2061646472657360448201527f73000000000000000000000000000000000000000000000000000000000000006064820152608401610412565b336000611b9c85612616565b90506000611ba985612616565b905060008681526020818152604080832073ffffffffffffffffffffffffffffffffffffffff8b16845290915281208054879290611be89084906133a8565b9091555050604080518781526020810187905273ffffffffffffffffffffffffffffffffffffffff808a1692600092918716917fc3d58168c5ae7397731d063d5bbf3d657854427343f4c083240f7aacaa2d0f62910160405180910390a4611c5583600089898989612661565b50505050505050565b6040805173ffffffffffffffffffffffffffffffffffffffff85811660248301528416604482015260648082018490528251808303909101815260849091019091526020810180517bffffffffffffffffffffffffffffffffffffffffffffffffffffffff167f23b872dd00000000000000000000000000000000000000000000000000000000179052611cf390859061280e565b50505050565b73ffffffffffffffffffffffffffffffffffffffff8316611d9c576040517f08c379a000000000000000000000000000000000000000000000000000000000815260206004820152602360248201527f455243313135353a206275726e2066726f6d20746865207a65726f206164647260448201527f65737300000000000000000000000000000000000000000000000000000000006064820152608401610412565b336000611da884612616565b90506000611db584612616565b604080516020808201835260009182905288825281815282822073ffffffffffffffffffffffffffffffffffffffff8b1683529052205490915084811015611e7e576040517f08c379a0000000000000000000000000000000000000000000000000000000008152602060048201526024808201527f455243313135353a206275726e20616d6f756e7420657863656564732062616c60448201527f616e6365000000000000000000000000000000000000000000000000000000006064820152608401610412565b60008681526020818152604080832073ffffffffffffffffffffffffffffffffffffffff8b81168086529184528285208a8703905582518b81529384018a90529092908816917fc3d58168c5ae7397731d063d5bbf3d657854427343f4c083240f7aacaa2d0f62910160405180910390a4604080516020810190915260009052611c55565b600082611f10858461291f565b14949350505050565b8173ffffffffffffffffffffffffffffffffffffffff168373ffffffffffffffffffffffffffffffffffffffff1603611fd4576040517f08c379a000000000000000000000000000000000000000000000000000000000815260206004820152602960248201527f455243313135353a2073657474696e6720617070726f76616c2073746174757360448201527f20666f722073656c6600000000000000000000000000000000000000000000006064820152608401610412565b73ffffffffffffffffffffffffffffffffffffffff83811660008181526001602090815260408083209487168084529482529182902080547fffffffffffffffffffffffffffffffffffffffffffffffffffffffffffffff001686151590811790915591519182527f17307eab39ab6107e8899845ad3d59bd9653f200f220920489ca2b5937696c31910160405180910390a3505050565b73ffffffffffffffffffffffffffffffffffffffff841661210f576040517f08c379a000000000000000000000000000000000000000000000000000000000815260206004820152602560248201527f455243313135353a207472616e7366657220746f20746865207a65726f20616460448201527f64726573730000000000000000000000000000000000000000000000000000006064820152608401610412565b33600061211b85612616565b9050600061212885612616565b905060008681526020818152604080832073ffffffffffffffffffffffffffffffffffffffff8c168452909152902054858110156121e8576040517f08c379a000000000000000000000000000000000000000000000000000000000815260206004820152602a60248201527f455243313135353a20696e73756666696369656e742062616c616e636520666f60448201527f72207472616e73666572000000000000000000000000000000000000000000006064820152608401610412565b60008781526020818152604080832073ffffffffffffffffffffffffffffffffffffffff8d8116855292528083208985039055908a168252812080548892906122329084906133a8565b9091555050604080518881526020810188905273ffffffffffffffffffffffffffffffffffffffff808b16928c821692918816917fc3d58168c5ae7397731d063d5bbf3d657854427343f4c083240f7aacaa2d0f62910160405180910390a461229f848a8a8a8a8a612661565b505050505050505050565b73ffffffffffffffffffffffffffffffffffffffff84163b156119ca576040517fbc197c8100000000000000000000000000000000000000000000000000000000815273ffffffffffffffffffffffffffffffffffffffff85169063bc197c819061232190899089908890889088906004016135c9565b6020604051808303816000875af192505050801561237a575060408051601f3d9081017fffffffffffffffffffffffffffffffffffffffffffffffffffffffffffffffe016820190925261237791810190613634565b60015b61246357612386613651565b806308c379a0036123d9575061239a61366d565b806123a557506123db565b806040517f08c379a00000000000000000000000000000000000000000000000000000000081526004016104129190612c8e565b505b6040517f08c379a000000000000000000000000000000000000000000000000000000000815260206004820152603460248201527f455243313135353a207472616e7366657220746f206e6f6e2d4552433131353560448201527f526563656976657220696d706c656d656e7465720000000000000000000000006064820152608401610412565b7fffffffff0000000000000000000000000000000000000000000000000000000081167fbc197c810000000000000000000000000000000000000000000000000000000014611c55576040517f08c379a000000000000000000000000000000000000000000000000000000000815260206004820152602860248201527f455243313135353a204552433131353552656365697665722072656a6563746560448201527f6420746f6b656e730000000000000000000000000000000000000000000000006064820152608401610412565b6000807a184f03e93ff9f4daa797ed6e38ed64bf6a1f010000000000000000831061257d577a184f03e93ff9f4daa797ed6e38ed64bf6a1f010000000000000000830492506040015b6d04ee2d6d415b85acef810000000083106125a9576d04ee2d6d415b85acef8100000000830492506020015b662386f26fc1000083106125c757662386f26fc10000830492506010015b6305f5e10083106125df576305f5e100830492506008015b61271083106125f357612710830492506004015b60648310612605576064830492506002015b600a831061044b5760010192915050565b604080516001808252818301909252606091600091906020808301908036833701905050905082816000815181106126505761265061340c565b602090810291909101015292915050565b73ffffffffffffffffffffffffffffffffffffffff84163b156119ca576040517ff23a6e6100000000000000000000000000000000000000000000000000000000815273ffffffffffffffffffffffffffffffffffffffff85169063f23a6e61906126d89089908990889088908890600401613715565b6020604051808303816000875af1925050508015612731575060408051601f3d9081017fffffffffffffffffffffffffffffffffffffffffffffffffffffffffffffffe016820190925261272e91810190613634565b60015b61273d57612386613651565b7fffffffff0000000000000000000000000000000000000000000000000000000081167ff23a6e610000000000000000000000000000000000000000000000000000000014611c55576040517f08c379a000000000000000000000000000000000000000000000000000000000815260206004820152602860248201527f455243313135353a204552433131353552656365697665722072656a6563746560448201527f6420746f6b656e730000000000000000000000000000000000000000000000006064820152608401610412565b6000612870826040518060400160405280602081526020017f5361666545524332303a206c6f772d6c6576656c2063616c6c206661696c65648152508573ffffffffffffffffffffffffffffffffffffffff166129649092919063ffffffff16565b80519091501561291a578080602001905181019061288e919061375a565b61291a576040517f08c379a000000000000000000000000000000000000000000000000000000000815260206004820152602a60248201527f5361666545524332303a204552433230206f7065726174696f6e20646964206e60448201527f6f742073756363656564000000000000000000000000000000000000000000006064820152608401610412565b505050565b600081815b8451811015610f5c57612950828683815181106129435761294361340c565b602002602001015161297b565b91508061295c816133bb565b915050612924565b606061297384846000856129a7565b949350505050565b6000818310612997576000828152602084905260409020610580565b5060009182526020526040902090565b606082471015612a39576040517f08c379a000000000000000000000000000000000000000000000000000000000815260206004820152602660248201527f416464726573733a20696e73756666696369656e742062616c616e636520666f60448201527f722063616c6c00000000000000000000000000000000000000000000000000006064820152608401610412565b6000808673ffffffffffffffffffffffffffffffffffffffff168587604051612a629190613777565b60006040518083038185875af1925050503d8060008114612a9f576040519150601f19603f3d011682016040523d82523d6000602084013e612aa4565b606091505b5091509150612ab587838387612ac0565b979650505050505050565b60608315612b56578251600003612b4f5773ffffffffffffffffffffffffffffffffffffffff85163b612b4f576040517f08c379a000000000000000000000000000000000000000000000000000000000815260206004820152601d60248201527f416464726573733a2063616c6c20746f206e6f6e2d636f6e74726163740000006044820152606401610412565b5081612973565b61297383838151156123a55781518083602001fd5b73ffffffffffffffffffffffffffffffffffffffff81168114612b8d57600080fd5b50565b60008060408385031215612ba357600080fd5b8235612bae81612b6b565b946020939093013593505050565b7fffffffff0000000000000000000000000000000000000000000000000000000081168114612b8d57600080fd5b600060208284031215612bfc57600080fd5b813561058081612bbc565b600060208284031215612c1957600080fd5b5035919050565b60005b83811015612c3b578181015183820152602001612c23565b50506000910152565b60008151808452612c5c816020860160208601612c20565b601f017fffffffffffffffffffffffffffffffffffffffffffffffffffffffffffffffe0169290920160200192915050565b6020815260006105806020830184612c44565b60008060408385031215612cb457600080fd5b50508035926020909101359150565b7f4e487b7100000000000000000000000000000000000000000000000000000000600052604160045260246000fd5b7fffffffffffffffffffffffffffffffffffffffffffffffffffffffffffffffe0601f830116810181811067ffffffffffffffff82111715612d3657612d36612cc3565b6040525050565b600067ffffffffffffffff821115612d5757612d57612cc3565b5060051b60200190565b600082601f830112612d7257600080fd5b81356020612d7f82612d3d565b604051612d8c8282612cf2565b83815260059390931b8501820192828101915086841115612dac57600080fd5b8286015b84811015612dc75780358352918301918301612db0565b509695505050505050565b600082601f830112612de357600080fd5b813567ffffffffffffffff811115612dfd57612dfd612cc3565b604051612e3260207fffffffffffffffffffffffffffffffffffffffffffffffffffffffffffffffe0601f8501160182612cf2565b818152846020838601011115612e4757600080fd5b816020850160208301376000918101602001919091529392505050565b600080600080600060a08688031215612e7c57600080fd5b8535612e8781612b6b565b94506020860135612e9781612b6b565b9350604086013567ffffffffffffffff80821115612eb457600080fd5b612ec089838a01612d61565b94506060880135915080821115612ed657600080fd5b612ee289838a01612d61565b93506080880135915080821115612ef857600080fd5b50612f0588828901612dd2565b9150509295509295909350565b60008060008060808587031215612f2857600080fd5b5050823594602084013594506040840135936060013592509050565b60008060408385031215612f5757600080fd5b823567ffffffffffffffff80821115612f6f57600080fd5b818501915085601f830112612f8357600080fd5b81356020612f9082612d3d565b604051612f9d8282612cf2565b83815260059390931b8501820192828101915089841115612fbd57600080fd5b948201945b83861015612fe4578535612fd581612b6b565b82529482019490820190612fc2565b96505086013592505080821115612ffa57600080fd5b5061300785828601612d61565b9150509250929050565b600081518084526020808501945080840160005b8381101561304157815187529582019590820190600101613025565b509495945050505050565b6020815260006105806020830184613011565b6000806000806060858703121561307557600080fd5b843561308081612b6b565b935060208501359250604085013567ffffffffffffffff808211156130a457600080fd5b818701915087601f8301126130b857600080fd5b8135818111156130c757600080fd5b8860208260051b85010111156130dc57600080fd5b95989497505060200194505050565b6000602082840312156130fd57600080fd5b813561ffff8116811461058057600080fd5b8015158114612b8d57600080fd5b6000806040838503121561313057600080fd5b823561313b81612b6b565b9150602083013561314b8161310f565b809150509250929050565b6000806040838503121561316957600080fd5b82359150602083013561314b81612b6b565b6000806040838503121561318e57600080fd5b823561319981612b6b565b9150602083013561314b81612b6b565b600080600080600060a086880312156131c157600080fd5b85356131cc81612b6b565b945060208601356131dc81612b6b565b93506040860135925060608601359150608086013567ffffffffffffffff81111561320657600080fd5b612f0588828901612dd2565b600181811c9082168061322657607f821691505b60208210810361325f577f4e487b7100000000000000000000000000000000000000000000000000000000600052602260045260246000fd5b50919050565b600080845461327381613212565b6001828116801561328b57600181146132be576132ed565b7fffffffffffffffffffffffffffffffffffffffffffffffffffffffffffffff00841687528215158302870194506132ed565b8860005260208060002060005b858110156132e45781548a8201529084019082016132cb565b50505082870194505b505050508351613301818360208801612c20565b01949350505050565b7f4e487b7100000000000000000000000000000000000000000000000000000000600052601160045260246000fd5b808202811582820484141761044b5761044b61330a565b600082613386577f4e487b7100000000000000000000000000000000000000000000000000000000600052601260045260246000fd5b500490565b60006020828403121561339d57600080fd5b815161058081612b6b565b8082018082111561044b5761044b61330a565b60007fffffffffffffffffffffffffffffffffffffffffffffffffffffffffffffffff82036133ec576133ec61330a565b5060010190565b60006020828403121561340557600080fd5b5051919050565b7f4e487b7100000000000000000000000000000000000000000000000000000000600052603260045260246000fd5b60408152600061344e6040830185613011565b82810360208401526134608185613011565b95945050505050565b601f82111561291a57600081815260208120601f850160051c810160208610156134905750805b601f850160051c820191505b818110156119ca5782815560010161349c565b815167ffffffffffffffff8111156134c9576134c9612cc3565b6134dd816134d78454613212565b84613469565b602080601f83116001811461353057600084156134fa5750858301515b7fffffffffffffffffffffffffffffffffffffffffffffffffffffffffffffffff600386901b1c1916600185901b1785556119ca565b6000858152602081207fffffffffffffffffffffffffffffffffffffffffffffffffffffffffffffffe08616915b8281101561357d5788860151825594840194600190910190840161355e565b50858210156135b957878501517fffffffffffffffffffffffffffffffffffffffffffffffffffffffffffffffff600388901b60f8161c191681555b5050505050600190811b01905550565b600073ffffffffffffffffffffffffffffffffffffffff808816835280871660208401525060a0604083015261360260a0830186613011565b82810360608401526136148186613011565b905082810360808401526136288185612c44565b98975050505050505050565b60006020828403121561364657600080fd5b815161058081612bbc565b600060033d111561366a5760046000803e5060005160e01c5b90565b600060443d101561367b5790565b6040517ffffffffffffffffffffffffffffffffffffffffffffffffffffffffffffffffc803d016004833e81513d67ffffffffffffffff81602484011181841117156136c957505050505090565b82850191508151818111156136e15750505050505090565b843d87010160208285010111156136fb5750505050505090565b61370a60208286010187612cf2565b509095945050505050565b600073ffffffffffffffffffffffffffffffffffffffff808816835280871660208401525084604083015283606083015260a06080830152612ab560a0830184612c44565b60006020828403121561376c57600080fd5b81516105808161310f565b60008251613789818460208701612c20565b919091019291505056fea26469706673582212209295ce17a3eed6db422568411ce76699033bbab5ccef2a95ec58a37e050a14e564736f6c63430008130033",
  "linkReferences": {},
  "deployedLinkReferences": {}
}