{
  "_format": "hh-sol-artifact-1",
  "contractName": "GFALMarketplace",
  "sourceName": "contracts/games/MarketPlace/GFALMarketplace.sol",
  "abi": [
    {
      "inputs": [
        {
          "internalType": "uint256",
          "name": "_royaltiesInBasisPoints",
          "type": "uint256"
        },
        {
          "internalType": "address",
          "name": "_g4alProxy",
          "type": "address"
        }
      ],
      "stateMutability": "nonpayable",
      "type": "constructor"
    },
    {
      "anonymous": false,
      "inputs": [
        {
          "indexed": true,
          "internalType": "address",
          "name": "collection",
          "type": "address"
        },
        {
          "indexed": false,
          "internalType": "uint256",
          "name": "tokenId",
          "type": "uint256"
        },
        {
          "indexed": false,
          "internalType": "uint256",
          "name": "amount",
          "type": "uint256"
        },
        {
          "indexed": false,
          "internalType": "uint256",
          "name": "price",
          "type": "uint256"
        },
        {
          "indexed": false,
          "internalType": "uint256",
          "name": "sellerRevenue",
          "type": "uint256"
        },
        {
          "indexed": false,
          "internalType": "uint256",
          "name": "royalties",
          "type": "uint256"
        },
        {
          "indexed": true,
          "internalType": "address",
          "name": "seller",
          "type": "address"
        },
        {
          "indexed": true,
          "internalType": "address",
          "name": "buyer",
          "type": "address"
        },
        {
          "indexed": false,
          "internalType": "uint256",
          "name": "saleId",
          "type": "uint256"
        }
      ],
      "name": "BuyToken",
      "type": "event"
    },
    {
      "anonymous": false,
      "inputs": [
        {
          "indexed": true,
          "internalType": "address",
          "name": "collection",
          "type": "address"
        },
        {
          "indexed": false,
          "internalType": "bool",
          "name": "isActive",
          "type": "bool"
        }
      ],
      "name": "CollectionUpdated",
      "type": "event"
    },
    {
      "anonymous": false,
      "inputs": [
        {
          "indexed": false,
          "internalType": "bool",
          "name": "isActive",
          "type": "bool"
        }
      ],
      "name": "ContractStatusUpdated",
      "type": "event"
    },
    {
      "anonymous": false,
      "inputs": [
        {
          "indexed": true,
          "internalType": "address",
          "name": "collection",
          "type": "address"
        },
        {
          "indexed": false,
          "internalType": "uint256",
          "name": "tokenId",
          "type": "uint256"
        },
        {
          "indexed": true,
          "internalType": "address",
          "name": "seller",
          "type": "address"
        },
        {
          "indexed": false,
          "internalType": "uint256",
          "name": "saleId",
          "type": "uint256"
        }
      ],
      "name": "RemoveToken",
      "type": "event"
    },
    {
      "anonymous": false,
      "inputs": [
        {
          "indexed": false,
          "internalType": "uint256",
          "name": "oldRoyalties",
          "type": "uint256"
        },
        {
          "indexed": false,
          "internalType": "uint256",
          "name": "newRoyalties",
          "type": "uint256"
        }
      ],
      "name": "RoyaltiesInBasisPointsUpdated",
      "type": "event"
    },
    {
      "anonymous": false,
      "inputs": [
        {
          "indexed": true,
          "internalType": "address",
          "name": "collection",
          "type": "address"
        },
        {
          "indexed": false,
          "internalType": "uint256",
          "name": "tokenId",
          "type": "uint256"
        },
        {
          "indexed": false,
          "internalType": "uint256",
          "name": "newPrice",
          "type": "uint256"
        },
        {
          "indexed": false,
          "internalType": "bool",
          "name": "isDollar",
          "type": "bool"
        },
        {
          "indexed": true,
          "internalType": "address",
          "name": "seller",
          "type": "address"
        },
        {
          "indexed": false,
          "internalType": "uint256",
          "name": "saleId",
          "type": "uint256"
        }
      ],
      "name": "SaleUpdated",
      "type": "event"
    },
    {
      "anonymous": false,
      "inputs": [
        {
          "indexed": true,
          "internalType": "address",
          "name": "collection",
          "type": "address"
        },
        {
          "indexed": false,
          "internalType": "uint256",
          "name": "tokenId",
          "type": "uint256"
        },
        {
          "indexed": false,
          "internalType": "uint256",
          "name": "amount",
          "type": "uint256"
        },
        {
          "indexed": false,
          "internalType": "uint256",
          "name": "price",
          "type": "uint256"
        },
        {
          "indexed": false,
          "internalType": "bool",
          "name": "isDollar",
          "type": "bool"
        },
        {
          "indexed": true,
          "internalType": "address",
          "name": "seller",
          "type": "address"
        },
        {
          "indexed": false,
          "internalType": "uint256",
          "name": "saleId",
          "type": "uint256"
        }
      ],
      "name": "SellToken",
      "type": "event"
    },
    {
      "inputs": [
        {
          "internalType": "address",
          "name": "collection",
          "type": "address"
        },
        {
          "internalType": "uint256",
          "name": "tokenId",
          "type": "uint256"
        },
        {
          "internalType": "address",
          "name": "seller",
          "type": "address"
        }
      ],
      "name": "buyToken",
      "outputs": [],
      "stateMutability": "nonpayable",
      "type": "function"
    },
    {
      "inputs": [],
      "name": "getSellersList",
      "outputs": [
        {
          "internalType": "address[]",
          "name": "",
          "type": "address[]"
        }
      ],
      "stateMutability": "view",
      "type": "function"
    },
    {
      "inputs": [],
      "name": "isActive",
      "outputs": [
        {
          "internalType": "bool",
          "name": "",
          "type": "bool"
        }
      ],
      "stateMutability": "view",
      "type": "function"
    },
    {
      "inputs": [
        {
          "internalType": "address",
          "name": "",
          "type": "address"
        },
        {
          "internalType": "address",
          "name": "",
          "type": "address"
        },
        {
          "internalType": "uint256[]",
          "name": "",
          "type": "uint256[]"
        },
        {
          "internalType": "uint256[]",
          "name": "",
          "type": "uint256[]"
        },
        {
          "internalType": "bytes",
          "name": "",
          "type": "bytes"
        }
      ],
      "name": "onERC1155BatchReceived",
      "outputs": [
        {
          "internalType": "bytes4",
          "name": "",
          "type": "bytes4"
        }
      ],
      "stateMutability": "nonpayable",
      "type": "function"
    },
    {
      "inputs": [
        {
          "internalType": "address",
          "name": "",
          "type": "address"
        },
        {
          "internalType": "address",
          "name": "",
          "type": "address"
        },
        {
          "internalType": "uint256",
          "name": "",
          "type": "uint256"
        },
        {
          "internalType": "uint256",
          "name": "",
          "type": "uint256"
        },
        {
          "internalType": "bytes",
          "name": "",
          "type": "bytes"
        }
      ],
      "name": "onERC1155Received",
      "outputs": [
        {
          "internalType": "bytes4",
          "name": "",
          "type": "bytes4"
        }
      ],
      "stateMutability": "nonpayable",
      "type": "function"
    },
    {
      "inputs": [
        {
          "internalType": "address",
          "name": "",
          "type": "address"
        },
        {
          "internalType": "address",
          "name": "",
          "type": "address"
        },
        {
          "internalType": "uint256",
          "name": "",
          "type": "uint256"
        },
        {
          "internalType": "bytes",
          "name": "",
          "type": "bytes"
        }
      ],
      "name": "onERC721Received",
      "outputs": [
        {
          "internalType": "bytes4",
          "name": "",
          "type": "bytes4"
        }
      ],
      "stateMutability": "nonpayable",
      "type": "function"
    },
    {
      "inputs": [
        {
          "internalType": "address",
          "name": "collection",
          "type": "address"
        },
        {
          "internalType": "uint256",
          "name": "tokenId",
          "type": "uint256"
        }
      ],
      "name": "removeToken",
      "outputs": [],
      "stateMutability": "nonpayable",
      "type": "function"
    },
    {
      "inputs": [],
      "name": "royaltiesInBasisPoints",
      "outputs": [
        {
          "internalType": "uint256",
          "name": "",
          "type": "uint256"
        }
      ],
      "stateMutability": "view",
      "type": "function"
    },
    {
      "inputs": [],
      "name": "saleCounter",
      "outputs": [
        {
          "internalType": "uint256",
          "name": "",
          "type": "uint256"
        }
      ],
      "stateMutability": "view",
      "type": "function"
    },
    {
      "inputs": [
        {
          "internalType": "address",
          "name": "collection",
          "type": "address"
        },
        {
          "internalType": "uint256",
          "name": "tokenId",
          "type": "uint256"
        },
        {
          "internalType": "uint256",
          "name": "amount",
          "type": "uint256"
        },
        {
          "internalType": "uint256",
          "name": "price",
          "type": "uint256"
        },
        {
          "internalType": "bool",
          "name": "isDollar",
          "type": "bool"
        }
      ],
      "name": "sellToken",
      "outputs": [],
      "stateMutability": "nonpayable",
      "type": "function"
    },
    {
      "inputs": [
        {
          "internalType": "bytes4",
          "name": "interfaceId",
          "type": "bytes4"
        }
      ],
      "name": "supportsInterface",
      "outputs": [
        {
          "internalType": "bool",
          "name": "",
          "type": "bool"
        }
      ],
      "stateMutability": "view",
      "type": "function"
    },
    {
      "inputs": [
        {
          "internalType": "address",
          "name": "",
          "type": "address"
        },
        {
          "internalType": "uint256",
          "name": "",
          "type": "uint256"
        },
        {
          "internalType": "address",
          "name": "",
          "type": "address"
        }
      ],
      "name": "tokensForSale1155",
      "outputs": [
        {
          "internalType": "uint256",
          "name": "price",
          "type": "uint256"
        },
        {
          "internalType": "bool",
          "name": "isDollar",
          "type": "bool"
        },
        {
          "internalType": "bool",
          "name": "isForSale",
          "type": "bool"
        },
        {
          "internalType": "uint256",
          "name": "amount",
          "type": "uint256"
        },
        {
          "internalType": "address",
          "name": "seller",
          "type": "address"
        },
        {
          "internalType": "uint256",
          "name": "saleId",
          "type": "uint256"
        }
      ],
      "stateMutability": "view",
      "type": "function"
    },
    {
      "inputs": [
        {
          "internalType": "address",
          "name": "",
          "type": "address"
        },
        {
          "internalType": "uint256",
          "name": "",
          "type": "uint256"
        }
      ],
      "name": "tokensForSale721",
      "outputs": [
        {
          "internalType": "uint256",
          "name": "price",
          "type": "uint256"
        },
        {
          "internalType": "bool",
          "name": "isDollar",
          "type": "bool"
        },
        {
          "internalType": "bool",
          "name": "isForSale",
          "type": "bool"
        },
        {
          "internalType": "uint256",
          "name": "amount",
          "type": "uint256"
        },
        {
          "internalType": "address",
          "name": "seller",
          "type": "address"
        },
        {
          "internalType": "uint256",
          "name": "saleId",
          "type": "uint256"
        }
      ],
      "stateMutability": "view",
      "type": "function"
    },
    {
      "inputs": [
        {
          "internalType": "address",
          "name": "collection",
          "type": "address"
        },
        {
          "internalType": "enum GFALMarketplace.TokenStandard",
          "name": "tokenStandard",
          "type": "uint8"
        },
        {
          "internalType": "bool",
          "name": "allowed",
          "type": "bool"
        }
      ],
      "name": "updateCollection",
      "outputs": [],
      "stateMutability": "nonpayable",
      "type": "function"
    },
    {
      "inputs": [
        {
          "internalType": "bool",
          "name": "_isActive",
          "type": "bool"
        }
      ],
      "name": "updateContractStatus",
      "outputs": [],
      "stateMutability": "nonpayable",
      "type": "function"
    },
    {
      "inputs": [
        {
          "internalType": "address",
          "name": "collection",
          "type": "address"
        },
        {
          "internalType": "uint256",
          "name": "tokenId",
          "type": "uint256"
        },
        {
          "internalType": "uint256",
          "name": "newPrice",
          "type": "uint256"
        },
        {
          "internalType": "bool",
          "name": "_isDollar",
          "type": "bool"
        }
      ],
      "name": "updatePrice",
      "outputs": [],
      "stateMutability": "nonpayable",
      "type": "function"
    },
    {
      "inputs": [
        {
          "internalType": "uint256",
          "name": "_royaltiesInBasisPoints",
          "type": "uint256"
        }
      ],
      "name": "updateRoyaltiesInBasisPoints",
      "outputs": [],
      "stateMutability": "nonpayable",
      "type": "function"
    },
    {
      "inputs": [],
      "name": "volume",
      "outputs": [
        {
          "internalType": "uint256",
          "name": "",
          "type": "uint256"
        }
      ],
      "stateMutability": "view",
      "type": "function"
    },
    {
      "inputs": [
        {
          "internalType": "address",
          "name": "",
          "type": "address"
        }
      ],
      "name": "whitelistNFTs",
      "outputs": [
        {
          "internalType": "bool",
          "name": "allowed",
          "type": "bool"
        },
        {
          "internalType": "enum GFALMarketplace.TokenStandard",
          "name": "tokenStandard",
          "type": "uint8"
        }
      ],
      "stateMutability": "view",
      "type": "function"
    }
  ],
  "bytecode": "0x60a06040523480156200001157600080fd5b506040516200384e3803806200384e8339810160408190526200003491620000b9565b60016000556001600160a01b038116620000945760405162461bcd60e51b815260206004820152601360248201527f416464726573732063616e6e6f74206265203000000000000000000000000000604482015260640160405180910390fd5b6003919091556001600160a01b03166080526004805460ff19166001179055620000f8565b60008060408385031215620000cd57600080fd5b825160208401519092506001600160a01b0381168114620000ed57600080fd5b809150509250929050565b6080516137096200014560003960008181610dce01528181610f560152818161124c0152818161180f0152818161194a01528181611add01528181611b8e0152611c1e01526137096000f3fe608060405234801561001057600080fd5b50600436106101515760003560e01c80632f228e9f116100cd5780636e3e03a811610081578063bc197c8111610066578063bc197c81146103e7578063c618a1e41461041f578063f23a6e611461042857600080fd5b80636e3e03a81461039a578063a7ef35fb146103d457600080fd5b806359e896f5116100b257806359e896f514610304578063655f79d214610374578063692bf4a81461038757600080fd5b80632f228e9f146102e8578063588b6938146102fb57600080fd5b80630ae4717511610124578063150b7a0211610109578063150b7a02146102845780631c557fa2146102c857806322f3e2d4146102db57600080fd5b80630ae471751461025c57806313baf1e61461027157600080fd5b806301ffc9a7146101565780630387b0a21461017e5780630675e41b1461019557806307c8ea8a14610247575b600080fd5b610169610164366004612f4d565b610460565b60405190151581526020015b60405180910390f35b61018760055481565b604051908152602001610175565b6101ff6101a3366004612fbb565b600860209081526000928352604080842090915290825290208054600182015460028301546003840154600490940154929360ff80841694610100909404169273ffffffffffffffffffffffffffffffffffffffff9091169086565b60408051968752941515602087015292151593850193909352606084015273ffffffffffffffffffffffffffffffffffffffff909116608083015260a082015260c001610175565b61024f6104f9565b6040516101759190612fe7565b61026f61026a36600461304f565b610568565b005b61026f61027f366004612fbb565b6108a7565b6102976102923660046131a5565b610da2565b6040517fffffffff000000000000000000000000000000000000000000000000000000009091168152602001610175565b61026f6102d6366004613211565b610dcc565b6004546101699060ff1681565b61026f6102f636600461322e565b610f54565b61018760035481565b6101ff61031236600461327d565b600760209081526000938452604080852082529284528284209052825290208054600182015460028301546003840154600490940154929360ff80841694610100909404169273ffffffffffffffffffffffffffffffffffffffff9091169086565b61026f6103823660046132b4565b61124a565b61026f61039536600461327d565b61141d565b6103c66103a83660046132cd565b60066020526000908152604090205460ff8082169161010090041682565b604051610175929190613319565b61026f6103e2366004613366565b611e6a565b6102976103f5366004613431565b7fbc197c810000000000000000000000000000000000000000000000000000000095945050505050565b61018760025481565b6102976104363660046134df565b7ff23a6e610000000000000000000000000000000000000000000000000000000095945050505050565b60007fffffffff0000000000000000000000000000000000000000000000000000000082167f4e2312e00000000000000000000000000000000000000000000000000000000014806104f357507f01ffc9a7000000000000000000000000000000000000000000000000000000007fffffffff000000000000000000000000000000000000000000000000000000008316145b92915050565b6060600180548060200260200160405190810160405280929190818152602001828054801561055e57602002820191906000526020600020905b815473ffffffffffffffffffffffffffffffffffffffff168152600190910190602001808311610533575b5050505050905090565b600082116105d7576040517f08c379a000000000000000000000000000000000000000000000000000000000815260206004820152601c60248201527f5072696365206d7573742062652067726561746572207468616e20300000000060448201526064015b60405180910390fd5b60008073ffffffffffffffffffffffffffffffffffffffff8616600090815260066020526040902054610100900460ff166001811115610619576106196132ea565b036107275773ffffffffffffffffffffffffffffffffffffffff85811660009081526008602090815260408083208884529091529020600301541633146106bc576040517f08c379a000000000000000000000000000000000000000000000000000000000815260206004820152601d60248201527f455243373231206e6f742073656c6c6572206f72206578697374696e6700000060448201526064016105ce565b5073ffffffffffffffffffffffffffffffffffffffff8416600090815260086020908152604080832086845290915290208281556001810180547fffffffffffffffffffffffffffffffffffffffffffffffffffffffffffffff00168315151790556004015461083e565b73ffffffffffffffffffffffffffffffffffffffff8581166000908152600760209081526040808320888452825280832033808552925290912060030154909116146107cf576040517f08c379a000000000000000000000000000000000000000000000000000000000815260206004820152601e60248201527f45524331313535206e6f742073656c6c6572206f72206578697374696e67000060448201526064016105ce565b5073ffffffffffffffffffffffffffffffffffffffff84166000908152600760209081526040808320868452825280832033845290915290208281556001810180547fffffffffffffffffffffffffffffffffffffffffffffffffffffffffffffff0016831515179055600401545b604080518581526020810185905283151581830152606081018390529051339173ffffffffffffffffffffffffffffffffffffffff8816917fe3c3d01e1e3f93279e68a9f5503831b0a598aa8236af83d65575ac4dde0911909181900360800190a35050505050565b6040805160c081018252600080825260208201819052918101829052606081018290526080810182905260a0810191909152600073ffffffffffffffffffffffffffffffffffffffff8416600090815260066020526040902054610100900460ff16600181111561091a5761091a6132ea565b03610b1f575073ffffffffffffffffffffffffffffffffffffffff8083166000908152600860209081526040808320858452825291829020825160c08101845281548152600182015460ff80821615159483019490945261010090049092161515928201929092526002820154606082015260038201549092166080830181905260049091015460a08301523314610a0e576040517f08c379a000000000000000000000000000000000000000000000000000000000815260206004820152601d60248201527f455243373231206e6f742073656c6c6572206f72206578697374696e6700000060448201526064016105ce565b73ffffffffffffffffffffffffffffffffffffffff831660008181526008602090815260408083208684529091528082208281556001810180547fffffffffffffffffffffffffffffffffffffffffffffffffffffffffffff0000169055600281018390556003810180547fffffffffffffffffffffffff0000000000000000000000000000000000000000169055600490810192909255517f42842e0e0000000000000000000000000000000000000000000000000000000081523091810191909152336024820152604481018490526342842e0e90606401600060405180830381600087803b158015610b0257600080fd5b505af1158015610b16573d6000803e3d6000fd5b50505050610d44565b73ffffffffffffffffffffffffffffffffffffffff838116600090815260076020908152604080832086845282528083203380855292529091206003015490911614610bc7576040517f08c379a000000000000000000000000000000000000000000000000000000000815260206004820152601e60248201527f45524331313535206e6f742073656c6c6572206f72206578697374696e67000060448201526064016105ce565b5073ffffffffffffffffffffffffffffffffffffffff8281166000818152600760209081526040808320868452825280832033808552818452828520835160c0810185528154815260018201805460ff8082161515848a0152610100820416151583880152600284018054606085018190526003860180549d8e1660808701526004808801805460a0808a01919091528a8f529a909c52968c90557fffffffffffffffffffffffffffffffffffffffffffffffffffffffffffff00009093169093558990557fffffffffffffffffffffffff0000000000000000000000000000000000000000909a169099559486905592517ff242432a000000000000000000000000000000000000000000000000000000008152309381019390935260248301526044820187905260648201869052608482015260a481019290925292919063f242432a9060c401600060405180830381600087803b158015610d2a57600080fd5b505af1158015610d3e573d6000803e3d6000fd5b50505050505b60a0810151604080518481526020810192909252339173ffffffffffffffffffffffffffffffffffffffff8616917f6bcdb0596b826c08489caca921b9adee3731f102e034b2ce8ae0853bb8343df5910160405180910390a3505050565b7f150b7a02000000000000000000000000000000000000000000000000000000005b949350505050565b7f000000000000000000000000000000000000000000000000000000000000000073ffffffffffffffffffffffffffffffffffffffff16636e9960c36040518163ffffffff1660e01b8152600401602060405180830381865afa158015610e37573d6000803e3d6000fd5b505050506040513d601f19601f82011682018060405250810190610e5b9190613548565b73ffffffffffffffffffffffffffffffffffffffff163373ffffffffffffffffffffffffffffffffffffffff1614610eef576040517f08c379a000000000000000000000000000000000000000000000000000000000815260206004820152600960248201527f4e6f742041646d696e000000000000000000000000000000000000000000000060448201526064016105ce565b600480547fffffffffffffffffffffffffffffffffffffffffffffffffffffffffffffff00168215159081179091556040519081527f89cb8aeac390e3fc9016dc87a4ed02fbbb63c5adafcbb03db9b6227a14fe589d9060200160405180910390a150565b7f000000000000000000000000000000000000000000000000000000000000000073ffffffffffffffffffffffffffffffffffffffff16636e9960c36040518163ffffffff1660e01b8152600401602060405180830381865afa158015610fbf573d6000803e3d6000fd5b505050506040513d601f19601f82011682018060405250810190610fe39190613548565b73ffffffffffffffffffffffffffffffffffffffff163373ffffffffffffffffffffffffffffffffffffffff1614611077576040517f08c379a000000000000000000000000000000000000000000000000000000000815260206004820152600960248201527f4e6f742041646d696e000000000000000000000000000000000000000000000060448201526064016105ce565b600082600181111561108b5761108b6132ea565b14806110a8575060018260018111156110a6576110a66132ea565b145b61110e576040517f08c379a000000000000000000000000000000000000000000000000000000000815260206004820152601760248201527f4e6f742076616c696420746f6b656e5374616e6461726400000000000000000060448201526064016105ce565b60405180604001604052808215158152602001836001811115611133576111336132ea565b905273ffffffffffffffffffffffffffffffffffffffff84166000908152600660209081526040909120825181549015157fffffffffffffffffffffffffffffffffffffffffffffffffffffffffffffff0082168117835592840151919283917fffffffffffffffffffffffffffffffffffffffffffffffffffffffffffff00ff9091167fffffffffffffffffffffffffffffffffffffffffffffffffffffffffffff0000909116176101008360018111156111f1576111f16132ea565b021790555050604051821515815273ffffffffffffffffffffffffffffffffffffffff851691507f43f9c71c9be70bc7eb83084927ad15907f8bf200fd201086607b1ef247f9eee59060200160405180910390a2505050565b7f000000000000000000000000000000000000000000000000000000000000000073ffffffffffffffffffffffffffffffffffffffff16636e9960c36040518163ffffffff1660e01b8152600401602060405180830381865afa1580156112b5573d6000803e3d6000fd5b505050506040513d601f19601f820116820180604052508101906112d99190613548565b73ffffffffffffffffffffffffffffffffffffffff163373ffffffffffffffffffffffffffffffffffffffff161461136d576040517f08c379a000000000000000000000000000000000000000000000000000000000815260206004820152600960248201527f4e6f742041646d696e000000000000000000000000000000000000000000000060448201526064016105ce565b61271181106113d8576040517f08c379a000000000000000000000000000000000000000000000000000000000815260206004820152601360248201527f6e756d626572206578636565647320313030250000000000000000000000000060448201526064016105ce565b600380549082905560408051828152602081018490527f6f7f88de623f565d316655a87fd71a75840d13d2eacfc5d6f7b1ad0d220b54d3910160405180910390a15050565b611425612b91565b60045460ff16611491576040517f08c379a000000000000000000000000000000000000000000000000000000000815260206004820152601460248201527f534320556e646572206d61696e74656e616e636500000000000000000000000060448201526064016105ce565b73ffffffffffffffffffffffffffffffffffffffff831660009081526006602052604090205460ff16611520576040517f08c379a000000000000000000000000000000000000000000000000000000000815260206004820152601a60248201527f4e6f7420616c6c6f776564204e465420636f6c6c656374696f6e00000000000060448201526064016105ce565b60008073ffffffffffffffffffffffffffffffffffffffff8516600090815260066020526040902054610100900460ff166001811115611562576115626132ea565b1490506115b86040518060c001604052806000815260200160001515815260200160001515815260200160008152602001600073ffffffffffffffffffffffffffffffffffffffff168152602001600081525090565b81156116a4575073ffffffffffffffffffffffffffffffffffffffff8085166000908152600860209081526040808320878452808352818420825160c0810184528154815260018201805460ff8082161515848901526101008204161515958301959095526002830180546060840152600384018054998a16608085015260048501805460a08601528d8a5295909752928790557fffffffffffffffffffffffffffffffffffffffffffffffffffffffffffff00009094169093558490557fffffffffffffffffffffffff00000000000000000000000000000000000000009094169091559155611790565b5073ffffffffffffffffffffffffffffffffffffffff80851660009081526007602090815260408083208784528252808320868516808552818452828520835160c0810185528154815260018201805460ff8082161515848a015261010082041615159683019690965260028301805460608401526003840180549a8b16608085015260048501805460a0860152958a5295909752918790557fffffffffffffffffffffffffffffffffffffffffffffffffffffffffffff00009094169055928490557fffffffffffffffffffffffff0000000000000000000000000000000000000000909416909355555b80604001516117fb576040517f08c379a000000000000000000000000000000000000000000000000000000000815260206004820152601660248201527f546f6b656e206973206e6f7420666f722073616c652e0000000000000000000060448201526064016105ce565b6000816020015161180d578151611935565b7f000000000000000000000000000000000000000000000000000000000000000073ffffffffffffffffffffffffffffffffffffffff166304a6c93e6040518163ffffffff1660e01b8152600401602060405180830381865afa158015611878573d6000803e3d6000fd5b505050506040513d601f19601f8201168201806040525081019061189c9190613548565b82516040517f6e5b6b2800000000000000000000000000000000000000000000000000000000815273ffffffffffffffffffffffffffffffffffffffff9290921691636e5b6b28916118f49160040190815260200190565b602060405180830381865afa158015611911573d6000803e3d6000fd5b505050506040513d601f19601f820116820180604052508101906119359190613565565b905060008061194383612c04565b91509150827f000000000000000000000000000000000000000000000000000000000000000073ffffffffffffffffffffffffffffffffffffffff16637c8d933d6040518163ffffffff1660e01b8152600401602060405180830381865afa1580156119b3573d6000803e3d6000fd5b505050506040513d601f19601f820116820180604052508101906119d79190613548565b6040517fdd62ed3e00000000000000000000000000000000000000000000000000000000815233600482015230602482015273ffffffffffffffffffffffffffffffffffffffff919091169063dd62ed3e90604401602060405180830381865afa158015611a49573d6000803e3d6000fd5b505050506040513d601f19601f82011682018060405250810190611a6d9190613565565b1015611ad5576040517f08c379a000000000000000000000000000000000000000000000000000000000815260206004820152601b60248201527f4746414c204552433230206d697373696e6720617070726f76616c000000000060448201526064016105ce565b611b883387847f000000000000000000000000000000000000000000000000000000000000000073ffffffffffffffffffffffffffffffffffffffff16637c8d933d6040518163ffffffff1660e01b8152600401602060405180830381865afa158015611b46573d6000803e3d6000fd5b505050506040513d601f19601f82011682018060405250810190611b6a9190613548565b73ffffffffffffffffffffffffffffffffffffffff16929190612c35565b611c87337f000000000000000000000000000000000000000000000000000000000000000073ffffffffffffffffffffffffffffffffffffffff166306359fd36040518163ffffffff1660e01b8152600401602060405180830381865afa158015611bf7573d6000803e3d6000fd5b505050506040513d601f19601f82011682018060405250810190611c1b9190613548565b837f000000000000000000000000000000000000000000000000000000000000000073ffffffffffffffffffffffffffffffffffffffff16637c8d933d6040518163ffffffff1660e01b8152600401602060405180830381865afa158015611b46573d6000803e3d6000fd5b8415611d1e576040517f42842e0e0000000000000000000000000000000000000000000000000000000081523060048201523360248201526044810188905273ffffffffffffffffffffffffffffffffffffffff8916906342842e0e90606401600060405180830381600087803b158015611d0157600080fd5b505af1158015611d15573d6000803e3d6000fd5b50505050611dc6565b60608401516040517ff242432a00000000000000000000000000000000000000000000000000000000815230600482015233602482015260448101899052606481019190915260a06084820152600060a482015273ffffffffffffffffffffffffffffffffffffffff89169063f242432a9060c401600060405180830381600087803b158015611dad57600080fd5b505af1158015611dc1573d6000803e3d6000fd5b505050505b82600254611dd491906135ad565b60025560608481015160a080870151604080518c81526020810194909452830187905292820185905260808201849052810191909152339073ffffffffffffffffffffffffffffffffffffffff88811691908b16907faee15cd8c5cf0385943317cc13850f9377c83999fbca523218f5efd42ef657d79060c00160405180910390a45050505050611e656001600055565b505050565b600083118015611e7a5750600082115b611ee0576040517f08c379a000000000000000000000000000000000000000000000000000000000815260206004820152601160248201527f56616c75652063616e6e6f74206265203000000000000000000000000000000060448201526064016105ce565b60045460ff16611f4c576040517f08c379a000000000000000000000000000000000000000000000000000000000815260206004820152601d60248201527f4d61726b6574506c61636520556e646572206d61696e74656e616e636500000060448201526064016105ce565b73ffffffffffffffffffffffffffffffffffffffff851660009081526006602052604090205460ff16611fdb576040517f08c379a000000000000000000000000000000000000000000000000000000000815260206004820152601a60248201527f4e6f7420616c6c6f776564204e465420636f6c6c656374696f6e00000000000060448201526064016105ce565b60008211612045576040517f08c379a000000000000000000000000000000000000000000000000000000000815260206004820152601a60248201527f43616e6e6f7420707574207a65726f206173206120707269636500000000000060448201526064016105ce565b3360009081526009602052604090205460ff166120ec5733600081815260096020526040812080547fffffffffffffffffffffffffffffffffffffffffffffffffffffffffffffff001660019081179091558054808201825591527fb10e2d527612073b26eecdfd717e6a320cf44b4afac2b0732d9fcbe2b7fa0cf60180547fffffffffffffffffffffffff00000000000000000000000000000000000000001690911790555b600554600073ffffffffffffffffffffffffffffffffffffffff8716600090815260066020526040902054610100900460ff166001811115612130576121306132ea565b03612648578360011461219f576040517f08c379a000000000000000000000000000000000000000000000000000000000815260206004820152601460248201527f416d6f756e74206e6565647320746f206265203100000000000000000000000060448201526064016105ce565b6040517f6352211e00000000000000000000000000000000000000000000000000000000815260048101869052339073ffffffffffffffffffffffffffffffffffffffff881690636352211e90602401602060405180830381865afa15801561220c573d6000803e3d6000fd5b505050506040513d601f19601f820116820180604052508101906122309190613548565b73ffffffffffffffffffffffffffffffffffffffff16146122d3576040517f08c379a000000000000000000000000000000000000000000000000000000000815260206004820152603260248201527f546f6b656e20646f6573206e6f742062656c6f6e6720746f2075736572206f7260448201527f206e6f74206578697374696e67203732312e000000000000000000000000000060648201526084016105ce565b73ffffffffffffffffffffffffffffffffffffffff861660009081526008602090815260408083208884529091529020600201541561236e576040517f08c379a000000000000000000000000000000000000000000000000000000000815260206004820152601760248201527f546f6b656e494420616c7265616479206f6e2073616c6500000000000000000060448201526064016105ce565b6040517fe985e9c500000000000000000000000000000000000000000000000000000000815233600482015230602482015273ffffffffffffffffffffffffffffffffffffffff87169063e985e9c590604401602060405180830381865afa1580156123de573d6000803e3d6000fd5b505050506040513d601f19601f8201168201806040525081019061240291906135c0565b612468576040517f08c379a000000000000000000000000000000000000000000000000000000000815260206004820152601760248201527f455243373231206d697373696e6720617070726f76616c00000000000000000060448201526064016105ce565b6040518060c0016040528084815260200183151581526020016001151581526020018581526020013373ffffffffffffffffffffffffffffffffffffffff16815260200182815250600860008873ffffffffffffffffffffffffffffffffffffffff1673ffffffffffffffffffffffffffffffffffffffff16815260200190815260200160002060008781526020019081526020016000206000820151816000015560208201518160010160006101000a81548160ff02191690831515021790555060408201518160010160016101000a81548160ff0219169083151502179055506060820151816002015560808201518160030160006101000a81548173ffffffffffffffffffffffffffffffffffffffff021916908373ffffffffffffffffffffffffffffffffffffffff16021790555060a082015181600401559050508573ffffffffffffffffffffffffffffffffffffffff166342842e0e3330886040518463ffffffff1660e01b81526004016126119392919073ffffffffffffffffffffffffffffffffffffffff9384168152919092166020820152604081019190915260600190565b600060405180830381600087803b15801561262b57600080fd5b505af115801561263f573d6000803e3d6000fd5b50505050612b11565b6040517efdd58e00000000000000000000000000000000000000000000000000000000815233600482015260248101869052849073ffffffffffffffffffffffffffffffffffffffff88169062fdd58e90604401602060405180830381865afa1580156126b9573d6000803e3d6000fd5b505050506040513d601f19601f820116820180604052508101906126dd9190613565565b1015612745576040517f08c379a000000000000000000000000000000000000000000000000000000000815260206004820152601d60248201527f4e6f7420656e6f75676820746f6b656e2062616c616e6365203131353500000060448201526064016105ce565b73ffffffffffffffffffffffffffffffffffffffff861660009081526007602090815260408083208884528252808320338452909152902060020154156127e8576040517f08c379a000000000000000000000000000000000000000000000000000000000815260206004820152601960248201527f4f6e6c79206f6e652073616c652070657220696420313135350000000000000060448201526064016105ce565b6040517fe985e9c500000000000000000000000000000000000000000000000000000000815233600482015230602482015273ffffffffffffffffffffffffffffffffffffffff87169063e985e9c590604401602060405180830381865afa158015612858573d6000803e3d6000fd5b505050506040513d601f19601f8201168201806040525081019061287c91906135c0565b6128e2576040517f08c379a000000000000000000000000000000000000000000000000000000000815260206004820152601860248201527f45524331313535206d697373696e6720617070726f76616c000000000000000060448201526064016105ce565b6040518060c0016040528084815260200183151581526020016001151581526020018581526020013373ffffffffffffffffffffffffffffffffffffffff16815260200182815250600760008873ffffffffffffffffffffffffffffffffffffffff1673ffffffffffffffffffffffffffffffffffffffff168152602001908152602001600020600087815260200190815260200160002060003373ffffffffffffffffffffffffffffffffffffffff1673ffffffffffffffffffffffffffffffffffffffff1681526020019081526020016000206000820151816000015560208201518160010160006101000a81548160ff02191690831515021790555060408201518160010160016101000a81548160ff0219169083151502179055506060820151816002015560808201518160030160006101000a81548173ffffffffffffffffffffffffffffffffffffffff021916908373ffffffffffffffffffffffffffffffffffffffff16021790555060a082015181600401559050508573ffffffffffffffffffffffffffffffffffffffff1663f242432a333088886040518563ffffffff1660e01b8152600401612ade949392919073ffffffffffffffffffffffffffffffffffffffff94851681529290931660208301526040820152606081019190915260a06080820181905260009082015260c00190565b600060405180830381600087803b158015612af857600080fd5b505af1158015612b0c573d6000803e3d6000fd5b505050505b612b1c8160016135ad565b6005556040805186815260208101869052908101849052821515606082015260808101829052339073ffffffffffffffffffffffffffffffffffffffff8816907fe9b07f736f04105296723dec83cc406436244ef7f604becba42f3a3c51db022f9060a00160405180910390a3505050505050565b600260005403612bfd576040517f08c379a000000000000000000000000000000000000000000000000000000000815260206004820152601f60248201527f5265656e7472616e637947756172643a207265656e7472616e742063616c6c0060448201526064016105ce565b6002600055565b60008061271060035484612c1891906135dd565b612c2291906135f4565b9050612c2e818461362f565b9150915091565b6040805173ffffffffffffffffffffffffffffffffffffffff85811660248301528416604482015260648082018490528251808303909101815260849091019091526020810180517bffffffffffffffffffffffffffffffffffffffffffffffffffffffff167f23b872dd00000000000000000000000000000000000000000000000000000000179052612cca908590612cd0565b50505050565b6000612d32826040518060400160405280602081526020017f5361666545524332303a206c6f772d6c6576656c2063616c6c206661696c65648152508573ffffffffffffffffffffffffffffffffffffffff16612ddc9092919063ffffffff16565b805190915015611e655780806020019051810190612d5091906135c0565b611e65576040517f08c379a000000000000000000000000000000000000000000000000000000000815260206004820152602a60248201527f5361666545524332303a204552433230206f7065726174696f6e20646964206e60448201527f6f7420737563636565640000000000000000000000000000000000000000000060648201526084016105ce565b6060610dc48484600085856000808673ffffffffffffffffffffffffffffffffffffffff168587604051612e109190613666565b60006040518083038185875af1925050503d8060008114612e4d576040519150601f19603f3d011682016040523d82523d6000602084013e612e52565b606091505b5091509150612e6387838387612e6e565b979650505050505050565b60608315612f04578251600003612efd5773ffffffffffffffffffffffffffffffffffffffff85163b612efd576040517f08c379a000000000000000000000000000000000000000000000000000000000815260206004820152601d60248201527f416464726573733a2063616c6c20746f206e6f6e2d636f6e747261637400000060448201526064016105ce565b5081610dc4565b610dc48383815115612f195781518083602001fd5b806040517f08c379a00000000000000000000000000000000000000000000000000000000081526004016105ce9190613682565b600060208284031215612f5f57600080fd5b81357fffffffff0000000000000000000000000000000000000000000000000000000081168114612f8f57600080fd5b9392505050565b73ffffffffffffffffffffffffffffffffffffffff81168114612fb857600080fd5b50565b60008060408385031215612fce57600080fd5b8235612fd981612f96565b946020939093013593505050565b6020808252825182820181905260009190848201906040850190845b8181101561303557835173ffffffffffffffffffffffffffffffffffffffff1683529284019291840191600101613003565b50909695505050505050565b8015158114612fb857600080fd5b6000806000806080858703121561306557600080fd5b843561307081612f96565b93506020850135925060408501359150606085013561308e81613041565b939692955090935050565b7f4e487b7100000000000000000000000000000000000000000000000000000000600052604160045260246000fd5b604051601f82017fffffffffffffffffffffffffffffffffffffffffffffffffffffffffffffffe016810167ffffffffffffffff8111828210171561310f5761310f613099565b604052919050565b600082601f83011261312857600080fd5b813567ffffffffffffffff81111561314257613142613099565b61317360207fffffffffffffffffffffffffffffffffffffffffffffffffffffffffffffffe0601f840116016130c8565b81815284602083860101111561318857600080fd5b816020850160208301376000918101602001919091529392505050565b600080600080608085870312156131bb57600080fd5b84356131c681612f96565b935060208501356131d681612f96565b925060408501359150606085013567ffffffffffffffff8111156131f957600080fd5b61320587828801613117565b91505092959194509250565b60006020828403121561322357600080fd5b8135612f8f81613041565b60008060006060848603121561324357600080fd5b833561324e81612f96565b925060208401356002811061326257600080fd5b9150604084013561327281613041565b809150509250925092565b60008060006060848603121561329257600080fd5b833561329d81612f96565b925060208401359150604084013561327281612f96565b6000602082840312156132c657600080fd5b5035919050565b6000602082840312156132df57600080fd5b8135612f8f81612f96565b7f4e487b7100000000000000000000000000000000000000000000000000000000600052602160045260246000fd5b82151581526040810160028310613359577f4e487b7100000000000000000000000000000000000000000000000000000000600052602160045260246000fd5b8260208301529392505050565b600080600080600060a0868803121561337e57600080fd5b853561338981612f96565b945060208601359350604086013592506060860135915060808601356133ae81613041565b809150509295509295909350565b600082601f8301126133cd57600080fd5b8135602067ffffffffffffffff8211156133e9576133e9613099565b8160051b6133f88282016130c8565b928352848101820192828101908785111561341257600080fd5b83870192505b84831015612e6357823582529183019190830190613418565b600080600080600060a0868803121561344957600080fd5b853561345481612f96565b9450602086013561346481612f96565b9350604086013567ffffffffffffffff8082111561348157600080fd5b61348d89838a016133bc565b945060608801359150808211156134a357600080fd5b6134af89838a016133bc565b935060808801359150808211156134c557600080fd5b506134d288828901613117565b9150509295509295909350565b600080600080600060a086880312156134f757600080fd5b853561350281612f96565b9450602086013561351281612f96565b93506040860135925060608601359150608086013567ffffffffffffffff81111561353c57600080fd5b6134d288828901613117565b60006020828403121561355a57600080fd5b8151612f8f81612f96565b60006020828403121561357757600080fd5b5051919050565b7f4e487b7100000000000000000000000000000000000000000000000000000000600052601160045260246000fd5b808201808211156104f3576104f361357e565b6000602082840312156135d257600080fd5b8151612f8f81613041565b80820281158282048414176104f3576104f361357e565b60008261362a577f4e487b7100000000000000000000000000000000000000000000000000000000600052601260045260246000fd5b500490565b818103818111156104f3576104f361357e565b60005b8381101561365d578181015183820152602001613645565b50506000910152565b60008251613678818460208701613642565b9190910192915050565b60208152600082518060208401526136a1816040850160208701613642565b601f017fffffffffffffffffffffffffffffffffffffffffffffffffffffffffffffffe016919091016040019291505056fea26469706673582212208937ca9b4dccc148b2f3dca0855ad08b05cf301d9de1703d9f8e290a354059ab64736f6c63430008130033",
  "linkReferences": {},
  "deployedLinkReferences": {}
}