{
  "_format": "hh-sol-artifact-1",
  "contractName": "ElementalRaidersSkin",
  "sourceName": "contracts/games/ElementalRaiders/Skin/ElementalRaidersSkin.sol",
  "abi": [
    {
      "inputs": [
        {
          "internalType": "address",
          "name": "_g4alProxy",
          "type": "address"
        },
        {
          "internalType": "string",
          "name": "_baseUri",
          "type": "string"
        }
      ],
      "stateMutability": "nonpayable",
      "type": "constructor"
    },
    {
      "anonymous": false,
      "inputs": [
        {
          "indexed": true,
          "internalType": "address",
          "name": "owner",
          "type": "address"
        },
        {
          "indexed": true,
          "internalType": "address",
          "name": "approved",
          "type": "address"
        },
        {
          "indexed": true,
          "internalType": "uint256",
          "name": "tokenId",
          "type": "uint256"
        }
      ],
      "name": "Approval",
      "type": "event"
    },
    {
      "anonymous": false,
      "inputs": [
        {
          "indexed": true,
          "internalType": "address",
          "name": "owner",
          "type": "address"
        },
        {
          "indexed": true,
          "internalType": "address",
          "name": "operator",
          "type": "address"
        },
        {
          "indexed": false,
          "internalType": "bool",
          "name": "approved",
          "type": "bool"
        }
      ],
      "name": "ApprovalForAll",
      "type": "event"
    },
    {
      "anonymous": false,
      "inputs": [
        {
          "indexed": true,
          "internalType": "address",
          "name": "from",
          "type": "address"
        },
        {
          "indexed": true,
          "internalType": "address",
          "name": "to",
          "type": "address"
        },
        {
          "indexed": false,
          "internalType": "uint256",
          "name": "tokenId",
          "type": "uint256"
        },
        {
          "indexed": false,
          "internalType": "uint256",
          "name": "price",
          "type": "uint256"
        }
      ],
      "name": "Mint",
      "type": "event"
    },
    {
      "anonymous": false,
      "inputs": [
        {
          "indexed": true,
          "internalType": "address",
          "name": "from",
          "type": "address"
        },
        {
          "indexed": true,
          "internalType": "address",
          "name": "to",
          "type": "address"
        },
        {
          "indexed": true,
          "internalType": "uint256",
          "name": "tokenId",
          "type": "uint256"
        }
      ],
      "name": "Transfer",
      "type": "event"
    },
    {
      "inputs": [
        {
          "internalType": "address",
          "name": "to",
          "type": "address"
        },
        {
          "internalType": "uint256",
          "name": "tokenId",
          "type": "uint256"
        }
      ],
      "name": "approve",
      "outputs": [],
      "stateMutability": "nonpayable",
      "type": "function"
    },
    {
      "inputs": [
        {
          "internalType": "address",
          "name": "owner",
          "type": "address"
        }
      ],
      "name": "balanceOf",
      "outputs": [
        {
          "internalType": "uint256",
          "name": "",
          "type": "uint256"
        }
      ],
      "stateMutability": "view",
      "type": "function"
    },
    {
      "inputs": [
        {
          "internalType": "uint256",
          "name": "tokenId",
          "type": "uint256"
        }
      ],
      "name": "burn",
      "outputs": [],
      "stateMutability": "nonpayable",
      "type": "function"
    },
    {
      "inputs": [
        {
          "internalType": "uint256",
          "name": "tokenId",
          "type": "uint256"
        }
      ],
      "name": "getApproved",
      "outputs": [
        {
          "internalType": "address",
          "name": "",
          "type": "address"
        }
      ],
      "stateMutability": "view",
      "type": "function"
    },
    {
      "inputs": [
        {
          "internalType": "uint256[]",
          "name": "rarities",
          "type": "uint256[]"
        }
      ],
      "name": "getMintingPricesByRarity",
      "outputs": [
        {
          "internalType": "uint256[]",
          "name": "",
          "type": "uint256[]"
        }
      ],
      "stateMutability": "view",
      "type": "function"
    },
    {
      "inputs": [
        {
          "internalType": "uint256[]",
          "name": "tokens",
          "type": "uint256[]"
        }
      ],
      "name": "getOwnersByTokens",
      "outputs": [
        {
          "internalType": "address[]",
          "name": "",
          "type": "address[]"
        }
      ],
      "stateMutability": "view",
      "type": "function"
    },
    {
      "inputs": [
        {
          "internalType": "address",
          "name": "owner",
          "type": "address"
        },
        {
          "internalType": "address",
          "name": "operator",
          "type": "address"
        }
      ],
      "name": "isApprovedForAll",
      "outputs": [
        {
          "internalType": "bool",
          "name": "",
          "type": "bool"
        }
      ],
      "stateMutability": "view",
      "type": "function"
    },
    {
      "inputs": [],
      "name": "name",
      "outputs": [
        {
          "internalType": "string",
          "name": "",
          "type": "string"
        }
      ],
      "stateMutability": "view",
      "type": "function"
    },
    {
      "inputs": [
        {
          "internalType": "uint256",
          "name": "tokenId",
          "type": "uint256"
        }
      ],
      "name": "ownerOf",
      "outputs": [
        {
          "internalType": "address",
          "name": "",
          "type": "address"
        }
      ],
      "stateMutability": "view",
      "type": "function"
    },
    {
      "inputs": [
        {
          "internalType": "uint256",
          "name": "",
          "type": "uint256"
        }
      ],
      "name": "prices",
      "outputs": [
        {
          "internalType": "uint256",
          "name": "",
          "type": "uint256"
        }
      ],
      "stateMutability": "view",
      "type": "function"
    },
    {
      "inputs": [
        {
          "internalType": "address",
          "name": "to",
          "type": "address"
        },
        {
          "internalType": "uint256",
          "name": "rarity",
          "type": "uint256"
        }
      ],
      "name": "safeMint",
      "outputs": [],
      "stateMutability": "nonpayable",
      "type": "function"
    },
    {
      "inputs": [
        {
          "internalType": "address",
          "name": "from",
          "type": "address"
        },
        {
          "internalType": "address",
          "name": "to",
          "type": "address"
        },
        {
          "internalType": "uint256",
          "name": "tokenId",
          "type": "uint256"
        }
      ],
      "name": "safeTransferFrom",
      "outputs": [],
      "stateMutability": "nonpayable",
      "type": "function"
    },
    {
      "inputs": [
        {
          "internalType": "address",
          "name": "from",
          "type": "address"
        },
        {
          "internalType": "address",
          "name": "to",
          "type": "address"
        },
        {
          "internalType": "uint256",
          "name": "tokenId",
          "type": "uint256"
        },
        {
          "internalType": "bytes",
          "name": "data",
          "type": "bytes"
        }
      ],
      "name": "safeTransferFrom",
      "outputs": [],
      "stateMutability": "nonpayable",
      "type": "function"
    },
    {
      "inputs": [
        {
          "internalType": "address",
          "name": "operator",
          "type": "address"
        },
        {
          "internalType": "bool",
          "name": "approved",
          "type": "bool"
        }
      ],
      "name": "setApprovalForAll",
      "outputs": [],
      "stateMutability": "nonpayable",
      "type": "function"
    },
    {
      "inputs": [
        {
          "internalType": "bytes4",
          "name": "interfaceId",
          "type": "bytes4"
        }
      ],
      "name": "supportsInterface",
      "outputs": [
        {
          "internalType": "bool",
          "name": "",
          "type": "bool"
        }
      ],
      "stateMutability": "view",
      "type": "function"
    },
    {
      "inputs": [],
      "name": "symbol",
      "outputs": [
        {
          "internalType": "string",
          "name": "",
          "type": "string"
        }
      ],
      "stateMutability": "view",
      "type": "function"
    },
    {
      "inputs": [
        {
          "internalType": "uint256",
          "name": "index",
          "type": "uint256"
        }
      ],
      "name": "tokenByIndex",
      "outputs": [
        {
          "internalType": "uint256",
          "name": "",
          "type": "uint256"
        }
      ],
      "stateMutability": "view",
      "type": "function"
    },
    {
      "inputs": [
        {
          "internalType": "address",
          "name": "owner",
          "type": "address"
        },
        {
          "internalType": "uint256",
          "name": "index",
          "type": "uint256"
        }
      ],
      "name": "tokenOfOwnerByIndex",
      "outputs": [
        {
          "internalType": "uint256",
          "name": "",
          "type": "uint256"
        }
      ],
      "stateMutability": "view",
      "type": "function"
    },
    {
      "inputs": [
        {
          "internalType": "uint256",
          "name": "tokenId",
          "type": "uint256"
        }
      ],
      "name": "tokenURI",
      "outputs": [
        {
          "internalType": "string",
          "name": "",
          "type": "string"
        }
      ],
      "stateMutability": "view",
      "type": "function"
    },
    {
      "inputs": [],
      "name": "totalSupply",
      "outputs": [
        {
          "internalType": "uint256",
          "name": "",
          "type": "uint256"
        }
      ],
      "stateMutability": "view",
      "type": "function"
    },
    {
      "inputs": [
        {
          "internalType": "address",
          "name": "from",
          "type": "address"
        },
        {
          "internalType": "address",
          "name": "to",
          "type": "address"
        },
        {
          "internalType": "uint256",
          "name": "tokenId",
          "type": "uint256"
        }
      ],
      "name": "transferFrom",
      "outputs": [],
      "stateMutability": "nonpayable",
      "type": "function"
    },
    {
      "inputs": [
        {
          "internalType": "string",
          "name": "_baseUri",
          "type": "string"
        }
      ],
      "name": "updateBaseURI",
      "outputs": [],
      "stateMutability": "nonpayable",
      "type": "function"
    },
    {
      "inputs": [
        {
          "internalType": "uint256",
          "name": "rarity",
          "type": "uint256"
        },
        {
          "internalType": "uint256",
          "name": "price",
          "type": "uint256"
        }
      ],
      "name": "updateMintingPrice",
      "outputs": [],
      "stateMutability": "nonpayable",
      "type": "function"
    }
  ],
  "bytecode": "0x60a06040523480156200001157600080fd5b5060405162003a2738038062003a27833981016040819052620000349162000141565b6040518060400160405280601681526020017f456c656d656e74616c205261696465727320536b696e000000000000000000008152506040518060400160405280600681526020016522a929a5a4a760d11b81525081600090816200009a9190620002c6565b506001620000a98282620002c6565b5050506001600160a01b038216620001075760405162461bcd60e51b815260206004820152601360248201527f416464726573732063616e6e6f74206265203000000000000000000000000000604482015260640160405180910390fd5b6001600160a01b038216608052600b620001228282620002c6565b50505062000392565b634e487b7160e01b600052604160045260246000fd5b600080604083850312156200015557600080fd5b82516001600160a01b03811681146200016d57600080fd5b602084810151919350906001600160401b03808211156200018d57600080fd5b818601915086601f830112620001a257600080fd5b815181811115620001b757620001b76200012b565b604051601f8201601f19908116603f01168101908382118183101715620001e257620001e26200012b565b816040528281528986848701011115620001fb57600080fd5b600093505b828410156200021f578484018601518185018701529285019262000200565b60008684830101528096505050505050509250929050565b600181811c908216806200024c57607f821691505b6020821081036200026d57634e487b7160e01b600052602260045260246000fd5b50919050565b601f821115620002c157600081815260208120601f850160051c810160208610156200029c5750805b601f850160051c820191505b81811015620002bd57828155600101620002a8565b5050505b505050565b81516001600160401b03811115620002e257620002e26200012b565b620002fa81620002f3845462000237565b8462000273565b602080601f831160018114620003325760008415620003195750858301515b600019600386901b1c1916600185901b178555620002bd565b600085815260208120601f198616915b82811015620003635788860151825594840194600190910190840162000342565b5085821015620003825787850151600019600388901b60f8161c191681555b5050505050600190811b01905550565b608051613648620003df60003960008181610bb601528181610cf501528181610e1a01528181610ef401528181611030015281816110c0015281816112f601526114b801526136486000f3fe608060405234801561001057600080fd5b506004361061018d5760003560e01c80636352211e116100e3578063b88d4fde1161008c578063c87b56dd11610066578063c87b56dd14610367578063e646a1491461037a578063e985e9c51461038d57600080fd5b8063b88d4fde14610314578063bc31c1c114610327578063bf80cb6a1461034757600080fd5b806395d89b41116100bd57806395d89b41146102e6578063a1448194146102ee578063a22cb4651461030157600080fd5b80636352211e146102ad57806370a08231146102c0578063931688cb146102d357600080fd5b806323b872dd1161014557806342966c681161011f57806342966c68146102675780634f6ccce71461027a57806359c084b31461028d57600080fd5b806323b872dd1461022e5780632f745c591461024157806342842e0e1461025457600080fd5b8063081812fc11610176578063081812fc146101cf578063095ea7b31461020757806318160ddd1461021c57600080fd5b806301ffc9a71461019257806306fdde03146101ba575b600080fd5b6101a56101a0366004612d64565b6103d6565b60405190151581526020015b60405180910390f35b6101c26103e7565b6040516101b19190612def565b6101e26101dd366004612e02565b610479565b60405173ffffffffffffffffffffffffffffffffffffffff90911681526020016101b1565b61021a610215366004612e3d565b6104ad565b005b6008545b6040519081526020016101b1565b61021a61023c366004612e69565b61063e565b61022061024f366004612e3d565b6106e0565b61021a610262366004612e69565b6107af565b61021a610275366004612e02565b6107ca565b610220610288366004612e02565b61086b565b6102a061029b366004612f28565b610929565b6040516101b19190612fce565b6101e26102bb366004612e02565b610a5a565b6102206102ce366004613028565b610ae6565b61021a6102e1366004613045565b610bb4565b6101c2610ce4565b61021a6102fc366004612e3d565b610cf3565b61021a61030f3660046130c5565b6111e7565b61021a6103223660046130fe565b6111f6565b610220610335366004612e02565b600c6020526000908152604090205481565b61035a610355366004612f28565b61129e565b6040516101b191906131e0565b6101c2610375366004612e02565b61144f565b61021a610388366004613218565b6114b6565b6101a561039b36600461323a565b73ffffffffffffffffffffffffffffffffffffffff918216600090815260056020908152604080832093909416825291909152205460ff1690565b60006103e1826115eb565b92915050565b6060600080546103f690613268565b80601f016020809104026020016040519081016040528092919081815260200182805461042290613268565b801561046f5780601f106104445761010080835404028352916020019161046f565b820191906000526020600020905b81548152906001019060200180831161045257829003601f168201915b5050505050905090565b600061048482611641565b5060009081526004602052604090205473ffffffffffffffffffffffffffffffffffffffff1690565b60006104b882610a5a565b90508073ffffffffffffffffffffffffffffffffffffffff168373ffffffffffffffffffffffffffffffffffffffff160361057a576040517f08c379a000000000000000000000000000000000000000000000000000000000815260206004820152602160248201527f4552433732313a20617070726f76616c20746f2063757272656e74206f776e6560448201527f720000000000000000000000000000000000000000000000000000000000000060648201526084015b60405180910390fd5b3373ffffffffffffffffffffffffffffffffffffffff821614806105a357506105a3813361039b565b61062f576040517f08c379a000000000000000000000000000000000000000000000000000000000815260206004820152603d60248201527f4552433732313a20617070726f76652063616c6c6572206973206e6f7420746f60448201527f6b656e206f776e6572206f7220617070726f76656420666f7220616c6c0000006064820152608401610571565b61063983836116cc565b505050565b610649335b8261176c565b6106d5576040517f08c379a000000000000000000000000000000000000000000000000000000000815260206004820152602d60248201527f4552433732313a2063616c6c6572206973206e6f7420746f6b656e206f776e6560448201527f72206f7220617070726f766564000000000000000000000000000000000000006064820152608401610571565b61063983838361182c565b60006106eb83610ae6565b8210610779576040517f08c379a000000000000000000000000000000000000000000000000000000000815260206004820152602b60248201527f455243373231456e756d657261626c653a206f776e657220696e646578206f7560448201527f74206f6620626f756e64730000000000000000000000000000000000000000006064820152608401610571565b5073ffffffffffffffffffffffffffffffffffffffff919091166000908152600660209081526040808320938352929052205490565b610639838383604051806020016040528060008152506111f6565b6107d333610643565b61085f576040517f08c379a000000000000000000000000000000000000000000000000000000000815260206004820152602d60248201527f4552433732313a2063616c6c6572206973206e6f7420746f6b656e206f776e6560448201527f72206f7220617070726f766564000000000000000000000000000000000000006064820152608401610571565b61086881611b34565b50565b600061087660085490565b8210610904576040517f08c379a000000000000000000000000000000000000000000000000000000000815260206004820152602c60248201527f455243373231456e756d657261626c653a20676c6f62616c20696e646578206f60448201527f7574206f6620626f756e647300000000000000000000000000000000000000006064820152608401610571565b60088281548110610917576109176132bb565b90600052602060002001549050919050565b60606000825167ffffffffffffffff81111561094757610947612eaa565b604051908082528060200260200182016040528015610970578160200160208202803683370190505b50905060005b8351811015610a53573073ffffffffffffffffffffffffffffffffffffffff16636352211e8583815181106109ad576109ad6132bb565b60200260200101516040518263ffffffff1660e01b81526004016109d391815260200190565b602060405180830381865afa1580156109f0573d6000803e3d6000fd5b505050506040513d601f19601f82011682018060405250810190610a1491906132ea565b828281518110610a2657610a266132bb565b73ffffffffffffffffffffffffffffffffffffffff90921660209283029190910190910152600101610976565b5092915050565b60008181526002602052604081205473ffffffffffffffffffffffffffffffffffffffff16806103e1576040517f08c379a000000000000000000000000000000000000000000000000000000000815260206004820152601860248201527f4552433732313a20696e76616c696420746f6b656e20494400000000000000006044820152606401610571565b600073ffffffffffffffffffffffffffffffffffffffff8216610b8b576040517f08c379a000000000000000000000000000000000000000000000000000000000815260206004820152602960248201527f4552433732313a2061646472657373207a65726f206973206e6f74206120766160448201527f6c6964206f776e657200000000000000000000000000000000000000000000006064820152608401610571565b5073ffffffffffffffffffffffffffffffffffffffff1660009081526003602052604090205490565b7f000000000000000000000000000000000000000000000000000000000000000073ffffffffffffffffffffffffffffffffffffffff16636e9960c36040518163ffffffff1660e01b8152600401602060405180830381865afa158015610c1f573d6000803e3d6000fd5b505050506040513d601f19601f82011682018060405250810190610c4391906132ea565b73ffffffffffffffffffffffffffffffffffffffff163373ffffffffffffffffffffffffffffffffffffffff1614610cd7576040517f08c379a000000000000000000000000000000000000000000000000000000000815260206004820152600960248201527f4e6f742041646d696e00000000000000000000000000000000000000000000006044820152606401610571565b600b610639828483613355565b6060600180546103f690613268565b7f000000000000000000000000000000000000000000000000000000000000000073ffffffffffffffffffffffffffffffffffffffff16636e9960c36040518163ffffffff1660e01b8152600401602060405180830381865afa158015610d5e573d6000803e3d6000fd5b505050506040513d601f19601f82011682018060405250810190610d8291906132ea565b73ffffffffffffffffffffffffffffffffffffffff163373ffffffffffffffffffffffffffffffffffffffff1614610e16576040517f08c379a000000000000000000000000000000000000000000000000000000000815260206004820152600960248201527f4e6f742041646d696e00000000000000000000000000000000000000000000006044820152606401610571565b60007f000000000000000000000000000000000000000000000000000000000000000073ffffffffffffffffffffffffffffffffffffffff166364d00c456040518163ffffffff1660e01b8152600401602060405180830381865afa158015610e83573d6000803e3d6000fd5b505050506040513d601f19601f82011682018060405250810190610ea791906132ea565b73ffffffffffffffffffffffffffffffffffffffff80851660009081526005602090815260408083209385168352929052205490915060ff16610ef057610ef083826001611c1a565b60007f000000000000000000000000000000000000000000000000000000000000000073ffffffffffffffffffffffffffffffffffffffff166304a6c93e6040518163ffffffff1660e01b8152600401602060405180830381865afa158015610f5d573d6000803e3d6000fd5b505050506040513d601f19601f82011682018060405250810190610f8191906132ea565b6000848152600c6020526040908190205490517f6e5b6b2800000000000000000000000000000000000000000000000000000000815273ffffffffffffffffffffffffffffffffffffffff9290921691636e5b6b2891610fe79160040190815260200190565b602060405180830381865afa158015611004573d6000803e3d6000fd5b505050506040513d601f19601f82011682018060405250810190611028919061346f565b905061116b847f000000000000000000000000000000000000000000000000000000000000000073ffffffffffffffffffffffffffffffffffffffff166312fde4b76040518163ffffffff1660e01b8152600401602060405180830381865afa158015611099573d6000803e3d6000fd5b505050506040513d601f19601f820116820180604052508101906110bd91906132ea565b837f000000000000000000000000000000000000000000000000000000000000000073ffffffffffffffffffffffffffffffffffffffff16637c8d933d6040518163ffffffff1660e01b8152600401602060405180830381865afa158015611129573d6000803e3d6000fd5b505050506040513d601f19601f8201168201806040525081019061114d91906132ea565b73ffffffffffffffffffffffffffffffffffffffff16929190611d47565b600a8054908190600061117d836134b7565b919050555061118c8582611ddc565b604080518281526020810184905273ffffffffffffffffffffffffffffffffffffffff8716916000917f2f00e3cdd69a77be7ed215ec7b2a36784dd158f921fca79ac29deffa353fe6ee910160405180910390a35050505050565b6111f2338383611c1a565b5050565b611200338361176c565b61128c576040517f08c379a000000000000000000000000000000000000000000000000000000000815260206004820152602d60248201527f4552433732313a2063616c6c6572206973206e6f7420746f6b656e206f776e6560448201527f72206f7220617070726f766564000000000000000000000000000000000000006064820152608401610571565b61129884848484611df6565b50505050565b60606000825167ffffffffffffffff8111156112bc576112bc612eaa565b6040519080825280602002602001820160405280156112e5578160200160208202803683370190505b50905060005b8351811015610a53577f000000000000000000000000000000000000000000000000000000000000000073ffffffffffffffffffffffffffffffffffffffff166304a6c93e6040518163ffffffff1660e01b8152600401602060405180830381865afa15801561135f573d6000803e3d6000fd5b505050506040513d601f19601f8201168201806040525081019061138391906132ea565b73ffffffffffffffffffffffffffffffffffffffff16636e5b6b28600c60008785815181106113b4576113b46132bb565b60200260200101518152602001908152602001600020546040518263ffffffff1660e01b81526004016113e991815260200190565b602060405180830381865afa158015611406573d6000803e3d6000fd5b505050506040513d601f19601f8201168201806040525081019061142a919061346f565b82828151811061143c5761143c6132bb565b60209081029190910101526001016112eb565b606061145a82611641565b6000611464611e99565b9050600081511161148457604051806020016040528060008152506114af565b8061148e84611ea8565b60405160200161149f9291906134ef565b6040516020818303038152906040525b9392505050565b7f000000000000000000000000000000000000000000000000000000000000000073ffffffffffffffffffffffffffffffffffffffff16636e9960c36040518163ffffffff1660e01b8152600401602060405180830381865afa158015611521573d6000803e3d6000fd5b505050506040513d601f19601f8201168201806040525081019061154591906132ea565b73ffffffffffffffffffffffffffffffffffffffff163373ffffffffffffffffffffffffffffffffffffffff16146115d9576040517f08c379a000000000000000000000000000000000000000000000000000000000815260206004820152600960248201527f4e6f742041646d696e00000000000000000000000000000000000000000000006044820152606401610571565b6000918252600c602052604090912055565b60007fffffffff0000000000000000000000000000000000000000000000000000000082167f780e9d630000000000000000000000000000000000000000000000000000000014806103e157506103e182611f66565b60008181526002602052604090205473ffffffffffffffffffffffffffffffffffffffff16610868576040517f08c379a000000000000000000000000000000000000000000000000000000000815260206004820152601860248201527f4552433732313a20696e76616c696420746f6b656e20494400000000000000006044820152606401610571565b600081815260046020526040902080547fffffffffffffffffffffffff00000000000000000000000000000000000000001673ffffffffffffffffffffffffffffffffffffffff8416908117909155819061172682610a5a565b73ffffffffffffffffffffffffffffffffffffffff167f8c5be1e5ebec7d5bd14f71427d1e84f3dd0314c0f7b2291e5b200ac8c7c3b92560405160405180910390a45050565b60008061177883610a5a565b90508073ffffffffffffffffffffffffffffffffffffffff168473ffffffffffffffffffffffffffffffffffffffff1614806117e6575073ffffffffffffffffffffffffffffffffffffffff80821660009081526005602090815260408083209388168352929052205460ff165b8061182457508373ffffffffffffffffffffffffffffffffffffffff1661180c84610479565b73ffffffffffffffffffffffffffffffffffffffff16145b949350505050565b8273ffffffffffffffffffffffffffffffffffffffff1661184c82610a5a565b73ffffffffffffffffffffffffffffffffffffffff16146118ef576040517f08c379a000000000000000000000000000000000000000000000000000000000815260206004820152602560248201527f4552433732313a207472616e736665722066726f6d20696e636f72726563742060448201527f6f776e65720000000000000000000000000000000000000000000000000000006064820152608401610571565b73ffffffffffffffffffffffffffffffffffffffff8216611991576040517f08c379a0000000000000000000000000000000000000000000000000000000008152602060048201526024808201527f4552433732313a207472616e7366657220746f20746865207a65726f2061646460448201527f72657373000000000000000000000000000000000000000000000000000000006064820152608401610571565b61199e8383836001612049565b8273ffffffffffffffffffffffffffffffffffffffff166119be82610a5a565b73ffffffffffffffffffffffffffffffffffffffff1614611a61576040517f08c379a000000000000000000000000000000000000000000000000000000000815260206004820152602560248201527f4552433732313a207472616e736665722066726f6d20696e636f72726563742060448201527f6f776e65720000000000000000000000000000000000000000000000000000006064820152608401610571565b600081815260046020908152604080832080547fffffffffffffffffffffffff000000000000000000000000000000000000000090811690915573ffffffffffffffffffffffffffffffffffffffff8781168086526003855283862080547fffffffffffffffffffffffffffffffffffffffffffffffffffffffffffffffff01905590871680865283862080546001019055868652600290945282852080549092168417909155905184937fddf252ad1be2c89b69c2b068fc378daa952ba7f163c4a11628f55a4df523b3ef91a4505050565b6000611b3f82610a5a565b9050611b4f816000846001612049565b611b5882610a5a565b600083815260046020908152604080832080547fffffffffffffffffffffffff000000000000000000000000000000000000000090811690915573ffffffffffffffffffffffffffffffffffffffff85168085526003845282852080547fffffffffffffffffffffffffffffffffffffffffffffffffffffffffffffffff0190558785526002909352818420805490911690555192935084927fddf252ad1be2c89b69c2b068fc378daa952ba7f163c4a11628f55a4df523b3ef908390a45050565b8173ffffffffffffffffffffffffffffffffffffffff168373ffffffffffffffffffffffffffffffffffffffff1603611caf576040517f08c379a000000000000000000000000000000000000000000000000000000000815260206004820152601960248201527f4552433732313a20617070726f766520746f2063616c6c6572000000000000006044820152606401610571565b73ffffffffffffffffffffffffffffffffffffffff83811660008181526005602090815260408083209487168084529482529182902080547fffffffffffffffffffffffffffffffffffffffffffffffffffffffffffffff001686151590811790915591519182527f17307eab39ab6107e8899845ad3d59bd9653f200f220920489ca2b5937696c31910160405180910390a3505050565b6040805173ffffffffffffffffffffffffffffffffffffffff85811660248301528416604482015260648082018490528251808303909101815260849091019091526020810180517bffffffffffffffffffffffffffffffffffffffffffffffffffffffff167f23b872dd00000000000000000000000000000000000000000000000000000000179052611298908590612055565b6111f2828260405180602001604052806000815250612161565b611e0184848461182c565b611e0d84848484612204565b611298576040517f08c379a000000000000000000000000000000000000000000000000000000000815260206004820152603260248201527f4552433732313a207472616e7366657220746f206e6f6e20455243373231526560448201527f63656976657220696d706c656d656e74657200000000000000000000000000006064820152608401610571565b6060600b80546103f690613268565b60606000611eb5836123f7565b600101905060008167ffffffffffffffff811115611ed557611ed5612eaa565b6040519080825280601f01601f191660200182016040528015611eff576020820181803683370190505b5090508181016020015b7fffffffffffffffffffffffffffffffffffffffffffffffffffffffffffffffff017f3031323334353637383961626364656600000000000000000000000000000000600a86061a8153600a8504945084611f0957509392505050565b60007fffffffff0000000000000000000000000000000000000000000000000000000082167f80ac58cd000000000000000000000000000000000000000000000000000000001480611ff957507fffffffff0000000000000000000000000000000000000000000000000000000082167f5b5e139f00000000000000000000000000000000000000000000000000000000145b806103e157507f01ffc9a7000000000000000000000000000000000000000000000000000000007fffffffff000000000000000000000000000000000000000000000000000000008316146103e1565b611298848484846124d9565b60006120b7826040518060400160405280602081526020017f5361666545524332303a206c6f772d6c6576656c2063616c6c206661696c65648152508573ffffffffffffffffffffffffffffffffffffffff166126899092919063ffffffff16565b80519091501561063957808060200190518101906120d5919061351e565b610639576040517f08c379a000000000000000000000000000000000000000000000000000000000815260206004820152602a60248201527f5361666545524332303a204552433230206f7065726174696f6e20646964206e60448201527f6f742073756363656564000000000000000000000000000000000000000000006064820152608401610571565b61216b8383612698565b6121786000848484612204565b610639576040517f08c379a000000000000000000000000000000000000000000000000000000000815260206004820152603260248201527f4552433732313a207472616e7366657220746f206e6f6e20455243373231526560448201527f63656976657220696d706c656d656e74657200000000000000000000000000006064820152608401610571565b600073ffffffffffffffffffffffffffffffffffffffff84163b156123ec576040517f150b7a0200000000000000000000000000000000000000000000000000000000815273ffffffffffffffffffffffffffffffffffffffff85169063150b7a029061227b90339089908890889060040161353b565b6020604051808303816000875af19250505080156122d4575060408051601f3d9081017fffffffffffffffffffffffffffffffffffffffffffffffffffffffffffffffe01682019092526122d191810190613584565b60015b6123a1573d808015612302576040519150601f19603f3d011682016040523d82523d6000602084013e612307565b606091505b508051600003612399576040517f08c379a000000000000000000000000000000000000000000000000000000000815260206004820152603260248201527f4552433732313a207472616e7366657220746f206e6f6e20455243373231526560448201527f63656976657220696d706c656d656e74657200000000000000000000000000006064820152608401610571565b805181602001fd5b7fffffffff00000000000000000000000000000000000000000000000000000000167f150b7a0200000000000000000000000000000000000000000000000000000000149050611824565b506001949350505050565b6000807a184f03e93ff9f4daa797ed6e38ed64bf6a1f0100000000000000008310612440577a184f03e93ff9f4daa797ed6e38ed64bf6a1f010000000000000000830492506040015b6d04ee2d6d415b85acef8100000000831061246c576d04ee2d6d415b85acef8100000000830492506020015b662386f26fc10000831061248a57662386f26fc10000830492506010015b6305f5e10083106124a2576305f5e100830492506008015b61271083106124b657612710830492506004015b606483106124c8576064830492506002015b600a83106103e15760010192915050565b6124e5848484846128cb565b6001811115612576576040517f08c379a000000000000000000000000000000000000000000000000000000000815260206004820152603560248201527f455243373231456e756d657261626c653a20636f6e736563757469766520747260448201527f616e7366657273206e6f7420737570706f7274656400000000000000000000006064820152608401610571565b8173ffffffffffffffffffffffffffffffffffffffff85166125df576125da81600880546000838152600960205260408120829055600182018355919091527ff3f7a9fe364faab93b216da50a3214154f22a0a2b415b23a84c8169e8b636ee30155565b61261c565b8373ffffffffffffffffffffffffffffffffffffffff168573ffffffffffffffffffffffffffffffffffffffff161461261c5761261c8582612987565b73ffffffffffffffffffffffffffffffffffffffff84166126455761264081612a3e565b612682565b8473ffffffffffffffffffffffffffffffffffffffff168473ffffffffffffffffffffffffffffffffffffffff1614612682576126828482612aed565b5050505050565b60606118248484600085612b3e565b73ffffffffffffffffffffffffffffffffffffffff8216612715576040517f08c379a000000000000000000000000000000000000000000000000000000000815260206004820181905260248201527f4552433732313a206d696e7420746f20746865207a65726f20616464726573736044820152606401610571565b60008181526002602052604090205473ffffffffffffffffffffffffffffffffffffffff16156127a1576040517f08c379a000000000000000000000000000000000000000000000000000000000815260206004820152601c60248201527f4552433732313a20746f6b656e20616c7265616479206d696e746564000000006044820152606401610571565b6127af600083836001612049565b60008181526002602052604090205473ffffffffffffffffffffffffffffffffffffffff161561283b576040517f08c379a000000000000000000000000000000000000000000000000000000000815260206004820152601c60248201527f4552433732313a20746f6b656e20616c7265616479206d696e746564000000006044820152606401610571565b73ffffffffffffffffffffffffffffffffffffffff8216600081815260036020908152604080832080546001019055848352600290915280822080547fffffffffffffffffffffffff0000000000000000000000000000000000000000168417905551839291907fddf252ad1be2c89b69c2b068fc378daa952ba7f163c4a11628f55a4df523b3ef908290a45050565b60018111156112985773ffffffffffffffffffffffffffffffffffffffff84161561292b5773ffffffffffffffffffffffffffffffffffffffff8416600090815260036020526040812080548392906129259084906135a1565b90915550505b73ffffffffffffffffffffffffffffffffffffffff8316156112985773ffffffffffffffffffffffffffffffffffffffff83166000908152600360205260408120805483929061297c9084906135b4565b909155505050505050565b6000600161299484610ae6565b61299e91906135a1565b6000838152600760205260409020549091508082146129fe5773ffffffffffffffffffffffffffffffffffffffff841660009081526006602090815260408083208584528252808320548484528184208190558352600790915290208190555b50600091825260076020908152604080842084905573ffffffffffffffffffffffffffffffffffffffff9094168352600681528383209183525290812055565b600854600090612a50906001906135a1565b60008381526009602052604081205460088054939450909284908110612a7857612a786132bb565b906000526020600020015490508060088381548110612a9957612a996132bb565b6000918252602080832090910192909255828152600990915260408082208490558582528120556008805480612ad157612ad16135c7565b6001900381819060005260206000200160009055905550505050565b6000612af883610ae6565b73ffffffffffffffffffffffffffffffffffffffff9093166000908152600660209081526040808320868452825280832085905593825260079052919091209190915550565b606082471015612bd0576040517f08c379a000000000000000000000000000000000000000000000000000000000815260206004820152602660248201527f416464726573733a20696e73756666696369656e742062616c616e636520666f60448201527f722063616c6c00000000000000000000000000000000000000000000000000006064820152608401610571565b6000808673ffffffffffffffffffffffffffffffffffffffff168587604051612bf991906135f6565b60006040518083038185875af1925050503d8060008114612c36576040519150601f19603f3d011682016040523d82523d6000602084013e612c3b565b606091505b5091509150612c4c87838387612c57565b979650505050505050565b60608315612ced578251600003612ce65773ffffffffffffffffffffffffffffffffffffffff85163b612ce6576040517f08c379a000000000000000000000000000000000000000000000000000000000815260206004820152601d60248201527f416464726573733a2063616c6c20746f206e6f6e2d636f6e74726163740000006044820152606401610571565b5081611824565b6118248383815115612d025781518083602001fd5b806040517f08c379a00000000000000000000000000000000000000000000000000000000081526004016105719190612def565b7fffffffff000000000000000000000000000000000000000000000000000000008116811461086857600080fd5b600060208284031215612d7657600080fd5b81356114af81612d36565b60005b83811015612d9c578181015183820152602001612d84565b50506000910152565b60008151808452612dbd816020860160208601612d81565b601f017fffffffffffffffffffffffffffffffffffffffffffffffffffffffffffffffe0169290920160200192915050565b6020815260006114af6020830184612da5565b600060208284031215612e1457600080fd5b5035919050565b73ffffffffffffffffffffffffffffffffffffffff8116811461086857600080fd5b60008060408385031215612e5057600080fd5b8235612e5b81612e1b565b946020939093013593505050565b600080600060608486031215612e7e57600080fd5b8335612e8981612e1b565b92506020840135612e9981612e1b565b929592945050506040919091013590565b7f4e487b7100000000000000000000000000000000000000000000000000000000600052604160045260246000fd5b604051601f82017fffffffffffffffffffffffffffffffffffffffffffffffffffffffffffffffe016810167ffffffffffffffff81118282101715612f2057612f20612eaa565b604052919050565b60006020808385031215612f3b57600080fd5b823567ffffffffffffffff80821115612f5357600080fd5b818501915085601f830112612f6757600080fd5b813581811115612f7957612f79612eaa565b8060051b9150612f8a848301612ed9565b8181529183018401918481019088841115612fa457600080fd5b938501935b83851015612fc257843582529385019390850190612fa9565b98975050505050505050565b6020808252825182820181905260009190848201906040850190845b8181101561301c57835173ffffffffffffffffffffffffffffffffffffffff1683529284019291840191600101612fea565b50909695505050505050565b60006020828403121561303a57600080fd5b81356114af81612e1b565b6000806020838503121561305857600080fd5b823567ffffffffffffffff8082111561307057600080fd5b818501915085601f83011261308457600080fd5b81358181111561309357600080fd5b8660208285010111156130a557600080fd5b60209290920196919550909350505050565b801515811461086857600080fd5b600080604083850312156130d857600080fd5b82356130e381612e1b565b915060208301356130f3816130b7565b809150509250929050565b6000806000806080858703121561311457600080fd5b843561311f81612e1b565b935060208581013561313081612e1b565b935060408601359250606086013567ffffffffffffffff8082111561315457600080fd5b818801915088601f83011261316857600080fd5b81358181111561317a5761317a612eaa565b6131aa847fffffffffffffffffffffffffffffffffffffffffffffffffffffffffffffffe0601f84011601612ed9565b915080825289848285010111156131c057600080fd5b808484018584013760008482840101525080935050505092959194509250565b6020808252825182820181905260009190848201906040850190845b8181101561301c578351835292840192918401916001016131fc565b6000806040838503121561322b57600080fd5b50508035926020909101359150565b6000806040838503121561324d57600080fd5b823561325881612e1b565b915060208301356130f381612e1b565b600181811c9082168061327c57607f821691505b6020821081036132b5577f4e487b7100000000000000000000000000000000000000000000000000000000600052602260045260246000fd5b50919050565b7f4e487b7100000000000000000000000000000000000000000000000000000000600052603260045260246000fd5b6000602082840312156132fc57600080fd5b81516114af81612e1b565b601f82111561063957600081815260208120601f850160051c8101602086101561332e5750805b601f850160051c820191505b8181101561334d5782815560010161333a565b505050505050565b67ffffffffffffffff83111561336d5761336d612eaa565b6133818361337b8354613268565b83613307565b6000601f8411600181146133d3576000851561339d5750838201355b7fffffffffffffffffffffffffffffffffffffffffffffffffffffffffffffffff600387901b1c1916600186901b178355612682565b6000838152602090207fffffffffffffffffffffffffffffffffffffffffffffffffffffffffffffffe0861690835b828110156134225786850135825560209485019460019092019101613402565b508682101561345d577fffffffffffffffffffffffffffffffffffffffffffffffffffffffffffffffff60f88860031b161c19848701351681555b505060018560011b0183555050505050565b60006020828403121561348157600080fd5b5051919050565b7f4e487b7100000000000000000000000000000000000000000000000000000000600052601160045260246000fd5b60007fffffffffffffffffffffffffffffffffffffffffffffffffffffffffffffffff82036134e8576134e8613488565b5060010190565b60008351613501818460208801612d81565b835190830190613515818360208801612d81565b01949350505050565b60006020828403121561353057600080fd5b81516114af816130b7565b600073ffffffffffffffffffffffffffffffffffffffff80871683528086166020840152508360408301526080606083015261357a6080830184612da5565b9695505050505050565b60006020828403121561359657600080fd5b81516114af81612d36565b818103818111156103e1576103e1613488565b808201808211156103e1576103e1613488565b7f4e487b7100000000000000000000000000000000000000000000000000000000600052603160045260246000fd5b60008251613608818460208701612d81565b919091019291505056fea2646970667358221220373ce0ed159f01e30cf7b1c28b1edba5ba6746c2f1aa4b73e3343fc0dabb161764736f6c63430008130033",
  "linkReferences": {},
  "deployedLinkReferences": {}
}