{
  "_format": "hh-sol-artifact-1",
  "contractName": "OracleConsumer",
  "sourceName": "contracts/utils/OracleConsumer/OracleConsumer.sol",
  "abi": [
    {
      "inputs": [
        {
          "internalType": "address",
          "name": "_g4alProxy",
          "type": "address"
        },
        {
          "internalType": "uint256",
          "name": "_newTokenRateValue",
          "type": "uint256"
        }
      ],
      "stateMutability": "nonpayable",
      "type": "constructor"
    },
    {
      "anonymous": false,
      "inputs": [
        {
          "indexed": false,
          "internalType": "uint256",
          "name": "value",
          "type": "uint256"
        }
      ],
      "name": "UpdatedRate",
      "type": "event"
    },
    {
      "inputs": [
        {
          "internalType": "uint256",
          "name": "value",
          "type": "uint256"
        }
      ],
      "name": "getConversionRate",
      "outputs": [
        {
          "internalType": "uint256",
          "name": "",
          "type": "uint256"
        }
      ],
      "stateMutability": "view",
      "type": "function"
    },
    {
      "inputs": [],
      "name": "lastTokenRateValue",
      "outputs": [
        {
          "internalType": "uint256",
          "name": "",
          "type": "uint256"
        }
      ],
      "stateMutability": "view",
      "type": "function"
    },
    {
      "inputs": [
        {
          "internalType": "uint256",
          "name": "newTokenRateValue",
          "type": "uint256"
        }
      ],
      "name": "updateRateValue",
      "outputs": [],
      "stateMutability": "nonpayable",
      "type": "function"
    }
  ],
  "bytecode": "0x60a06040526000805534801561001457600080fd5b506040516104703803806104708339810160408190526100339161009b565b600081116100875760405162461bcd60e51b815260206004820152601560248201527f5261746556616c75652063616e6e6f7420626520300000000000000000000000604482015260640160405180910390fd5b6000556001600160a01b03166080526100d5565b600080604083850312156100ae57600080fd5b82516001600160a01b03811681146100c557600080fd5b6020939093015192949293505050565b6080516103816100ef600039600060b101526103816000f3fe608060405234801561001057600080fd5b50600436106100415760003560e01c80635e54b095146100465780636e5b6b28146100615780637401ced914610074575b600080fd5b61004f60005481565b60405190815260200160405180910390f35b61004f61006f36600461027c565b610089565b61008761008236600461027c565b6100af565b005b6000805461009f83670de0b6b3a7640000610295565b6100a991906102d3565b92915050565b7f000000000000000000000000000000000000000000000000000000000000000073ffffffffffffffffffffffffffffffffffffffff16636e9960c36040518163ffffffff1660e01b8152600401602060405180830381865afa15801561011a573d6000803e3d6000fd5b505050506040513d601f19601f8201168201806040525081019061013e919061030e565b73ffffffffffffffffffffffffffffffffffffffff163373ffffffffffffffffffffffffffffffffffffffff16146101d7576040517f08c379a000000000000000000000000000000000000000000000000000000000815260206004820152600960248201527f4e6f742041646d696e000000000000000000000000000000000000000000000060448201526064015b60405180910390fd5b60008111610241576040517f08c379a000000000000000000000000000000000000000000000000000000000815260206004820152601560248201527f5261746556616c75652063616e6e6f742062652030000000000000000000000060448201526064016101ce565b60008190556040518181527f46c417cbadef7db24044727c6b0a9af26d1d57506b11199d1a03adddc6525b249060200160405180910390a150565b60006020828403121561028e57600080fd5b5035919050565b80820281158282048414176100a9577f4e487b7100000000000000000000000000000000000000000000000000000000600052601160045260246000fd5b600082610309577f4e487b7100000000000000000000000000000000000000000000000000000000600052601260045260246000fd5b500490565b60006020828403121561032057600080fd5b815173ffffffffffffffffffffffffffffffffffffffff8116811461034457600080fd5b939250505056fea2646970667358221220dee41f6e0890539da18059daf1009ad41b38f73bc871fae30864f693799f433064736f6c63430008130033",
  "linkReferences": {},
  "deployedLinkReferences": {}
}